:020000040800F2
:1000000080060020450200084D0200084F0200084B
:1000100051020008530200085502000800000000C9
:10002000000000000000000000000000570200086F
:1000300059020008000000005B0200085D02000891
:100040005F0200085F0200085F0200085F0200080C
:100050005F0200085F0200085F0200085F020008FC
:100060005F0200085F0200085F0200085F020008EC
:100070005F0200085F0200085F0200085F020008DC
:100080005F0200085F0200085F0200080000000035
:100090000000000000000000000000005F020008F7
:1000A0005F0200085F0200085F0200085F020008AC
:1000B0005F0200085F0200085F0200085F0200089C
:1000C0005F0200085F0200085F0200085F0200088C
:1000D0005F0200085F0200085F02000800000000E5
:1000E0005F0200085F0200085F02000800000000D5
:1000F0000000000000000000000000005F02000897
:10010000000000005F0200085F0200085F020008B4
:1001100000000000000000000000000000000000DF
:100120005F0200085F0200085F0200085F0200082B
:100130005F02000800000000000000000000000056
:100140000000000000000000000000005F02000846
:100150005F0200085F0200085F0200085F020008FB
:100160005F0200085F0200080000000000000000BD
:10017000000000000000000000000000000000007F
:10018000000000005F020008000000000000000006
:100190005F02000800F002F800F044F80AA090E8BE
:1001A000000C82448344AAF10107DA4501D100F032
:1001B00039F8AFF2090EBAE80F0013F0010F18BFBB
:1001C000FB1A43F001031847800A0000A00A000050
:1001D000103A24BF78C878C1FAD8520724BF30C873
:1001E00030C144BF04680C60704700000023002445
:1001F00000250026103A28BF78C1FBD8520728BF37
:1002000030C148BF0B607047692900F09F806329A7
:1002100000F0E381002070471FB500F00DFD1FBD09
:1002200010B510BD00F0E5F91146FFF7F5FF00F03D
:10023000DDFB00F003FA03B4FFF7F2FF03BC00F0AC
:100240000BFA00000948804709480047FEE7FEE72F
:10025000FEE7FEE7FEE7FEE7FEE7FEE7FEE7FEE776
:1002600004480549054A064B70470000AD060008E2
:1002700095010008800000208006002080020020F8
:10028000800200200FB41CB5074B06AA7B446946C8
:100290000090059800F07FF90020694600F08EF983
:1002A0001CBC5DF814FB00002D03000070B5044673
:1002B00085690068C10601D5302600E02026C00708
:1002C00007D070BDD4E9012130469047206A401C18
:1002D00020626D1EF6D570BD70B504468569007844
:1002E000C00707D170BDD4E9012120209047206AC2
:1002F000401C20626D1EF6D570BD70B50C460546DB
:10030000012A05D02878800600D5EA69002302E09A
:10031000012305E05B1C934202D2E05C0028F9D186
:10032000A869E618C01AA861286A184428622846F5
:10033000FFF7BCFF04E0D5E9012114F8010B904759
:10034000B442F8D32846FFF7C7FF70BD2DE9F0414E
:100350000646002410687529314616A510D0AFF363
:100360000080002802DA404213A507E031688A07BE
:1003700001D512A502E0490704D511A5012401E029
:10038000AFF3008000210A2206F1240709E0B0FB48
:10039000F2FCB0FBF2F302FB1C003030785418463C
:1003A000491C0028F3D123462A463046BDE8F041D7
:1003B00000F092B8000000002D0000002B000000AB
:1003C000200000002DE9F0474FF0000A894604465E
:1003D000C0F820A02046E1688847002876D025286C
:1003E00006D0D4E901219047206A401C2062F1E741
:1003F000E168204600258847C4F81CA0064600276F
:10040000C4F818A02A2E09D0304600F059F938B3A4
:1004100004EB8708303EC8F8186019E059F8041B4F
:10042000204604EB87029161E1688847012F064668
:1004300018D1E069002820DA25F020051DE0D8F861
:10044000180000EB800006EB40003038C8F81800B8
:100450002046E1688847064600F032F90028EED1D0
:10046000012F0AD02E2E08D12046E16888477F1C34
:100470000646022F45F02005C4DBA069002803DAF8
:10048000404245F00105A061E80701D025F01005C4
:10049000B6B1A6F14100192802D8203645F400650E
:1004A0004A463146204625604D46FFF7ADFE58B11D
:1004B000012806D0ED1D25F0070000F1080989E7A5
:1004C00004E005F1040985E730468AE7206ABDE8C3
:1004D000F0877047704770472DE9F0470D46994601
:1004E0009246044600F124080168880604D5E069B4
:1004F00021F01001216000E00120A84201DD471B2E
:1005000000E00027A1697A1902EB0900081AA0612E
:100510002078C00602D42046FFF7C8FE002608E077
:10052000D4E901211AF806009047206A401C761C85
:1005300020624E45F4DB2078C0060AD52046FFF73E
:10054000B5FE06E0D4E9012130209047206A401C26
:100550002062381EA7F10107F4DC07E0D4E901218D
:1005600018F805009047206A401C2062281EA5F15B
:100570000105F3DC2046FFF7AFFE2078000602D528
:100580000220BDE8F0870120FBE7000001694A1C5A
:1005900002610878704700B58FB0CDE901310021C4
:1005A000059105497944CDE9031011466846FFF7E6
:1005B00009FF0FB000BD0000E5FFFFFF0A6802F869
:1005C000010B0A60704710B5436913B1AFF30080A7
:1005D00001E0FFF792FE012010BD127800F1240126
:1005E0000A7000224A700122EDE711684FF0FF32D5
:1005F000E9E7754600F02CF8AE460500694653461B
:1006000020F00700854618B020B5FFF729FEBDE8A9
:1006100020404FF000064FF000074FF000084FF069
:10062000000B21F00701AC46ACE8C009ACE8C009FA
:10063000ACE8C009ACE8C0098D46704710B5044667
:10064000AFF300802046BDE81040FFF7F4BD000086
:10065000004870471C00002001491820ABBEFEE78F
:1006600026000200704700000F48006840F00100BB
:100670000D49086000BF0C48006800F00200002827
:10068000F9D009480830006820F003000649083115
:1006900008600846006820F060500860084600685E
:1006A00020F040400860704700380240034800686E
:1006B00040F47000014908607047000088ED00E0D8
:1006C00030380A2801D2012070470020704707E027
:1006D000002100E0491C40F67B429142FADB401EBB
:1006E0000028F5DC7047002105E0002200E0521CE4
:1006F000072AFCDB491C8142F7DB704701460022D8
:10070000002004E00B5C1344DAB2431CD8B2042886
:10071000F8DB104670473CB5054600F01FFA00F0C4
:10072000BFF908B900203CBD002405E000F0F3F952
:100730000DF80400601CC4B2052CF7DB684600F01D
:1007400009F808B90020EEE76946284600F00EF8DF
:100750000120E8E730B5044600252046FFF7CEFF2C
:100760002179884200D10125284630BD8A78CB788E
:1007700002EB032212B202800A784B7802EB0322CA
:1007800012B242800A79027170472DE9F0410346A6
:100790001846D91703EB1171C1F30714D91703EBEE
:1007A00011710911A3EB0111CDB2204600F02EF812
:1007B00006460120A84087B23069384008B10120C0
:1007C00000E0002080464046BDE8F0812DE9F04180
:1007D00003460C461846D91703EB1171C1F30715F0
:1007E000D91703EB11710911A3EB0111CEB2284601
:1007F00000F00CF80746012000FA06F80CB140465C
:1008000001E04FEA0840B861BDE8F08101460829DF
:1008100011D2DFE801F00406080A0C10100E074898
:1008200009E0074807E0074805E0074803E00748F4
:1008300001E0074800BF00BF704700000000024011
:100840000004024000080240000C02400010024078
:10085000001C024010B50446012C01D0012000E02C
:10086000002001460122104600F092F901210020EB
:10087000FFF7ACFF00210846FFF7A8FF0122002187
:10088000104600F085F910BD00B500220121104688
:1008900000F07EF901220021104600F079F90121D3
:1008A0000020FFF793FF00BD00B50122114610465E
:1008B00000F06EF900210846FFF788FF00BD00B583
:1008C00000210846FFF782FF01221146104600F082
:1008D0005FF901210020FFF779FF01220021104676
:1008E00000F056F900BD30B50546002411E005FAC8
:1008F00004F0012222EAD011104600F049F901214A
:100900000020FFF763FF00210846FFF75FFF601C30
:10091000C4B2082CEBDB0020FFF79CFF012030BDA8
:1009200010B50446002003490870204600F021F865
:1009300010BD00000000002010B50446012003494E
:100940000870204600F015F810BD000000000020DF
:1009500000B5002000F08AF80220FFF7E1FF282010
:10096000FFF7DEFF0C20FFF7DBFF0620FFF7D8FFC5
:1009700000BD10B5044604F0F00000F005F82107B2
:10098000080E00F001F810BD10B5044608480078C4
:10099000044344F004010A2000F071F80220FFF73C
:1009A00096FE04F0FB010A2000F069F810BD00007B
:1009B00000000020F0B506460F4614460A49895D3E
:1009C0003944C8B2FFF7ACFF0AE014F8015BB02D60
:1009D00000D1DF25C22D02D02846FFF7ADFF00BFB2
:1009E00020780028F1D1F0BD420C0008FFF73CFE52
:1009F000FFF7AEFF25E01348FFF78DFEC8B11148A1
:100A0000B0F90220252310A11248FFF73BFC114A40
:100A100000210846FFF7CEFF0A48B0F900200EA1DA
:100A20000C48FFF72FFC0B4A00210120FFF7C2FF03
:100A300004E00CA200210846FFF7BCFFC820FFF726
:100A400046FED8E70200002048756D643A253369F8
:100A5000256300000800002054656D703A25336955
:100A6000B04300004572726F7200000010B504467A
:100A7000FFF70AFF2146002000F001F810BD30B555
:100A800005460C46FFF710FF4020FFF72CFF2846D5
:100A9000FFF729FF2046FFF726FFFFF710FF30BDC5
:100AA00010B5002402E00120FFF71DFE0320FFF730
:100AB0006CFE012804D12046611C8CB26428F2DB54
:100AC000642C01DB002010BD002402E00120FFF7B0
:100AD0000AFE0320FFF759FE20B92046611C8CB2A4
:100AE0006428F3DB642C01DB0020ECE7002402E047
:100AF0000120FFF7F8FD0320FFF747FE012804D18E
:100B00002046611C8CB26428F2DB642C01DB0020DF
:100B1000D9E70120D7E730B5002500241AE000BF4F
:100B20000320FFF732FE0028FAD01E20FFF7DBFD7E
:100B30000320FFF72AFE012804D1C4F107018840F1
:100B40002844C5B200BF0320FFF71FFE0128FAD0DA
:100B5000601CC4B2082CE2DB284630BD00B5002280
:100B60000121032000F014F800210320FFF72EFEDE
:100B70001920FFF7ACFD01210320FFF727FE1E20FF
:100B8000FFF7B1FD00221146032000F001F800BD7F
:100B90002DE9F04104460F4616462046E11704EBC6
:100BA0001171C1F30718E11704EB11710911A4EBDE
:100BB0000111CDB24046FFF729FE03461D480068EB
:100BC000012101FA08F108431A49086018686A000F
:100BD00003219140884318601868690007FA01F101
:100BE00008431860012E05D159680120A84001432F
:100BF000596005E026B959680120A8408143596031
:100C0000D8686A00032191408843D860D8686A0098
:100C1000012191400843D86098686A0003219140FF
:100C20008843986098686A00012191400843986061
:100C3000BDE8F081303802404FF04070E1EE100A1C
:100C4000704780C094D40000680C000800000020A9
:100C500008000000D0010008700C00080800002007
:100C600078060000EC010008000000000000000011
:040000050800019559
:00000001FF
