:020000040800F2
:1000000088060020450200084D0200084F02000843
:1000100051020008530200085502000800000000C9
:10002000000000000000000000000000570200086F
:1000300059020008000000005B0200085D02000891
:100040005F0200085F0200085F0200085F0200080C
:100050005F0200085F0200085F0200085F020008FC
:100060005F0200085F0200085F0200085F020008EC
:100070005F0200085F0200085F0200085F020008DC
:100080005F0200085F0200085F0200080000000035
:100090000000000000000000000000005F020008F7
:1000A0005F0200085F0200085F0200085F020008AC
:1000B0005F0200085F0200085F0200085F0200089C
:1000C0005F0200085F0200085F0200085F0200088C
:1000D0005F0200085F0200085F02000800000000E5
:1000E0005F0200085F0200085F02000800000000D5
:1000F0000000000000000000000000005F02000897
:10010000000000005F0200085F0200085F020008B4
:1001100000000000000000000000000000000000DF
:100120005F0200085F0200085F0200085F0200082B
:100130005F02000800000000000000000000000056
:100140000000000000000000000000005F02000846
:100150005F0200085F0200085F0200085F020008FB
:100160005F0200085F0200080000000000000000BD
:10017000000000000000000000000000000000007F
:10018000000000005F020008000000000000000006
:100190005F02000800F002F800F045F80AA090E8BD
:1001A000000C82448344AAF10107DA4501D100F032
:1001B0003AF8AFF2090EBAE80F0013F0010F18BFBA
:1001C000FB1A43F001031847DC0C0000FC0C000094
:1001D000103A24BF78C878C1FAD8520724BF30C873
:1001E00030C144BF04680C60704700000023002445
:1001F00000250026103A28BF78C1FBD8520728BF37
:1002000030C148BF0B6070471FB500F035FE00F0ED
:1002100057F904000020002100F018FE401C606027
:100220001FBD10B510BD00F026F91146FFF7ECFF19
:1002300000F0ECFA00F056F903B4FFF7F2FF03BC4C
:1002400000F09AF90948804709480047FEE7FEE7B1
:10025000FEE7FEE7FEE7FEE7FEE7FEE7FEE7FEE776
:1002600004480549054A064B704700008905000807
:1002700095010008880000208806002088020020E0
:100280008802002070B5064600F05EF80468054656
:1002900030460A22002100F05BF82C6070BD10B5DA
:1002A000431C02E010F8011B71B18107FAD14FF035
:1002B000013202C88C1A8C4314EAC211F9D0C01A58
:1002C0000A0603D0C01E10BDC01A10BD0A0401D01A
:1002D000801E10BD0902FCD0401E10BD10B5203A92
:1002E000C0F00B80B1E81850203AA0E81850B1E8EF
:1002F0001850A0E81850BFF4F5AF5FEA027C24BFA5
:10030000B1E81850A0E8185044BF18C918C0BDE89B
:1003100010405FEA827C24BF51F8043B40F8043B64
:1003200008BF7047D20728BF31F8023B48BF11F819
:10033000012B28BF20F8023B48BF00F8012B704773
:100340007047704770470000004870472800002041
:100350002DE9F04791460F4680460446002614F8E2
:10036000015B2DB100F030F80068405DC007F6D1A8
:100370002B2D02D02D2D18D0641E4A46394620461A
:1003800000F02AF827B13968A14201D1C7F80080EE
:100390004FF0020471050BD54042002803DDFFF742
:1003A000D3FF0460A007BDE8F08746F48066E4E769
:1003B0000028F8DAFFF7C8FF04606FF00040F2E7AA
:1003C000004870472800002010B500F079F8001DA3
:1003D00010BD00BF790A00002DE9F05F8246154686
:1003E0008B4600270AF10104B9460078302801D075
:1003F0009DB113E014F8010B0127782803D0582889
:1004000001D045B10AE00DB1102D07D1002714F835
:10041000010B102502E0082500E00A250026B04661
:100420000EE005FB080005FB06F101271FFA80F826
:1004300001EB1046B6F5803F00D3B94614F8010B26
:10044000294600F041F80028EBDABBF1000F05D097
:100450000FB1641E00E05446CBF80040B9F1000F24
:1004600006D0FFF771FF02210160C81EBDE8F09FB2
:1004700048EA0640FAE77546FFF7A2FFAE460500D8
:100480006946534620F00700854618B020B5FFF7AF
:10049000E7FEBDE820404FF000064FF000074FF0A8
:1004A00000084FF0000B21F00701AC46ACE8C00992
:1004B000ACE8C009ACE8C009ACE8C0098D4670479B
:1004C00000487047480000203A2800D2303820F019
:1004D0002002412A01D3A2F13700884201D34FF014
:1004E000FF30704710B50446AFF300802046BDE8EA
:1004F0001040FFF7A1BE00004FF0013C50F8042B64
:1005000051F8043B9A4221D1A2EB0C03934313EA26
:10051000CC1317D150F8042B51F8043B9A4215D153
:10052000A2EB0C03934313EACC130BD150F8042B2A
:1005300051F8043B9A4209D1A2EB0C03934313EA0E
:10054000CC13DBD04FF00000704700BFD01A01BAC7
:10055000B1FA81F101F0180122FA01F0CB40C1F1AA
:100560002001DBB2C0B2C01A2CFA01F3D11A9143B8
:1005700011EAC311E6D1704701491820ABBEFEE76E
:1005800026000200704700000348006840F4700035
:10059000014908607047000088ED00E010B50021B7
:1005A00004E020240A464B1CD9B28454425C002A41
:1005B000F7D110BD0F48006840F001000D490860F8
:1005C00000BF0C48006800F002000028F9D009487C
:1005D0000830006820F0030006490831086008462A
:1005E000006820F0605008600846006820F0404035
:1005F000086070470038024007E0002100E0491C15
:1006000040F67B429142FADB401E0028F5DC704741
:100610002DE9F04103460C461846D91703EB11713A
:10062000C1F30715D91703EB11710911A3EB0111E0
:10063000CEB2284600F040F80746012000FA06F83E
:100640000CB1404601E04FEA0840B861BDE8F081D6
:1006500002460021002009E0074B5B5C934203D176
:10066000054BDB1D585C05E04B1CD9B2024B5B5CB3
:10067000002BF1D100BF7047820E0008F0B5044690
:100680000E46154600272046202803DB7F2801DC84
:10069000012100E0002109B1204602E02046FFF7D9
:1006A000D7FF0746681C20B1AE4202D107F1800097
:1006B00000E03846C0B2F0BD0146082911D2DFE89B
:1006C00001F00406080A0C10100E074809E007485C
:1006D00007E0074805E0074803E0074801E007484E
:1006E00000BF00BF7047000000000240000402404D
:1006F00000080240000C024000100240001C0240B2
:1007000010B502460B460021481E00BF06E0545CAF
:100710009C4201D1084604E04C1C61B2545C002CA0
:10072000F5D100BF10BD2DE9F04706460C4617462F
:1007300098464FF0000920213046FFF7E1FF0546BB
:10074000BC4203D0681C70B174550CE0BC420AD1A5
:10075000681C18B93046FFF7A2FD45B2002D02DD36
:100760002021681E31543046FFF78CFD81464445F8
:1007700002D13046FFF712FF4846BDE8F08700B5CA
:10078000F021422000F0ECF800BD0000F0B54FF081
:10079000FF370025002432E00120A040C6B23246D7
:1007A0000A21422000F009F900BF00BF422000F0FA
:1007B000EDF8054605F0100020B1134810F82400AC
:1007C00047B21EE005F0200028B10F4800EB84007E
:1007D000407847B215E005F0400028B10A4800EB28
:1007E0008400807847B20CE005F0800028B106480C
:1007F00000EB8400C07847B203E0601CC4B2042C54
:10080000CADB00BF3846F0BD04000020FFF7D2FE6F
:10081000012000F043F8FFF7B2FF1EE0FFF7B6FF3C
:100820000E490870084690F90000401C90B10C4831
:100830000A4692F90020815C452343220948FFF7CC
:1008400072FF09490860074800F046F84FF4FA7053
:10085000FFF7D2FE0A20FFF7CFFEDFE724000020DB
:10086000900E0008150000202000002010B504465E
:100870002246FF21012000F05BF82246FF210220E2
:1008800000F056F822460721032000F051F82246D6
:100890000121042000F04CF810BD000010B5044602
:1008A000012000F089F911E0611EC9B20C46094A25
:1008B000505C00231A46012100F0F6F80549085D56
:1008C0000121FFF7A5FE2046FFF7D0FF002CEBD15A
:1008D00010BD00001400002070B586B0044600254D
:1008E00014220EA101A8FFF7F9FC214601A800F08F
:1008F00031F90EE014F8016B2E2E09D0C22E07D06C
:1009000001A842572946304600F07CFA681CC5B25F
:1009100000BF20780028EDD106B070BDFFFFFFFFBB
:10092000FFFFFFFFFFFFFFFFFFFFFFFFFFFFFFFFD7
:1009300070B506460D4614460849085D0021FFF7CC
:1009400067FE304600F038FA284600F035FA0349D1
:10095000085D0121FFF75CFE70BD0000140000205F
:1009600030B505460C46012000F026F900231A4652
:100970000121092000F098F801210920FFF748FE25
:1009800022460021284600F018F830BD30B5044654
:10099000002500210920FFF73BFE44F0010000F094
:1009A0000BFA092000F008FA00F066F9054601216B
:1009B0000920FFF72DFE284630BD70B504460D46D0
:1009C000164600210920FFF723FE204600F0F4F927
:1009D000284600F0F1F9304600F0EEF90121092037
:1009E000FFF716FE70BD00002DE9F04305460F46E7
:1009F0002846E91705EB1171C1F30718E91705EB54
:100A000011710911A5EB0111CCB24046FFF754FE5C
:100A1000034624480068012101FA08F108432149EE
:100A200008601868620003219140884318601868C4
:100A30006200022191400843186098686200032117
:100A40009140884398609868620002219140084371
:100A500098602046E11704EB5171CE10E11704EBCA
:100A60005171C910A4EBC10101F0FF0903F120008D
:100A700050F826004FEA89020F219140884303F184
:100A8000200141F82600084650F826004FEA890167
:100A900007FA01F1084303F1200141F82600BDE8FF
:100AA000F0830000303802402DE9F04304460F4641
:100AB000164698462046E11704EB1171C1F3071959
:100AC000E11704EB11710911A4EB0111CDB24846F5
:100AD000FFF7F2FD03461E480068012101FA09F103
:100AE00008431B49086018686A0003219140884345
:100AF00018601868690007FA01F108431860012EB0
:100B000005D158680121A9400843586005E026B97D
:100B100058680121A94088435860D8686A000321B9
:100B200091408843D860D868690008FA01F1084309
:100B3000D86098686A00032191408843986098685B
:100B40006A000221914008439860BDE8F0830000EC
:100B50003038024030B50346002000220AE08C5CA9
:100B60002E2C03D1441E65B21D5501E0441CE0B299
:100B7000541CE2B28C5C002CF1D130BD014601293D
:100B800006D0022906D0032906D0042908D105E0A1
:100B9000054807E0054805E0054803E0054801E091
:100BA000014800BF00BF70470030014000380040DE
:100BB000003C00400034014010B50446204600F0DF
:100BC00077F82046FFF7DAFF2A49086008460068F0
:100BD000006840F001000968086026480068006865
:100BE00040F0020023490968086022480068006854
:100BF00040F004001F49096808601E48006800684A
:100C000040F008001B49096808601A48006800683D
:100C100020F08000174909680860164800680068DD
:100C200040F4807013490968086012480068006841
:100C300040F400700F49096808600E4800680068B9
:100C400020F480600B49096808600A480068006861
:100C500020F40060074909680860064800680068D9
:100C600040F04000034909680860204600F054F84D
:100C700010BD000000000020002000BF0B490968E3
:100C8000896801F080010029F8D1084A1268D16012
:100C900000BF06490968896801F001010029F8D000
:100CA00002490968C968C8B2704700000000002006
:100CB000012806D002280BD0032812D0042820D106
:100CC00018E01449096841F48051124A11601FE08C
:100CD0001049091F096841F480410E4A121F116032
:100CE00016E00C49091F096841F40041094A121F26
:100CF00011600DE00749096841F40051054A11608F
:100D000006E00449096841F48051024A116000BFBD
:100D100000BF70474438024030B504460525012C19
:100D200006D0022C11D0032C1CD0042C34D126E088
:100D300005210846FFF758FE05210620FFF754FE5F
:100D400005210720FFF750FE33E005211D20FFF7A6
:100D50004BFE05211E20FFF747FE05211F20FFF750
:100D600043FE26E005212A20FFF73EFE05212B2029
:100D7000FFF73AFE05212C20FFF736FE19E005218A
:100D80004C20FFF731FE05214D20FFF72DFE0521F8
:100D90004E20FFF729FE0CE005211320FFF724FE6B
:100DA00005211420FFF720FE05211520FFF71CFE6A
:100DB00000BF00BF30BD000000BF104A126892683B
:100DC00002F00202002AF8D00C4A1268D06000BF7C
:100DD0000A4A1268926802F00202002AF8D000BFA4
:100DE000064A1268926802F08002002AF8D1044A8A
:100DF000D268D1B2024A9268D1B270470000002096
:100E0000003001402DE9F04305460C4616462046C9
:100E1000E11704EB5171C1F3C7072046E11704EB5A
:100E20005171C910A4EBC10101F0FF0832462146FF
:100E30002846FFF723FC814608F12001C8B23A4654
:100E40004946FFF775FDBDE8F083000010B50029A5
:100E50000AD00878002807D005487844FFF74CFBF3
:100E6000002801D0002010BD0248784410BD0000C9
:100E70006A000000620000004FF04070E1EE100ACE
:100E80007047A3A580B0B5B10018191A1B1C1D002E
:100E900043303D2B3132332D343536783738392FC6
:100EA00000000000D40F000800000020280000000F
:100EB000D0010008FC0F0008280000206006000098
:100EC000EC0100081001000043000000F8FFFFFFE4
:100ED000004040404040404040404141414141404D
:100EE0004040404040404040404040404040404002
:100EF0004005020202020202020202020202020291
:100F00000220202020202020202020020202020295
:100F100002029090909090901010101010101010ED
:100F200010101010101010101010101002020202F9
:100F3000020288888888888808080808080808083D
:100F40000808080808080808080808080202020239
:100F50004000000000000000000000000000000051
:100F60000000000000000000000000000000000081
:100F70000000000000000000000000000000000071
:100F80000000000000000000000000000000000061
:100F90000000000000000000000000000000000051
:100FA0000000000000000000000000000000000041
:100FB0000000000000000000000000000000000031
:100FC0000000000000000000000000000000000021
:100FD00000000000000000000001020304050607F5
:100FE00008090A0B0C0D0E0F0820202020202020BD
:0C0FF0002000000000000000FF000000D6
:040000050800019559
:00000001FF
