:020000040800F2
:1000000080060020E1020008E9020008EB02000877
:10001000ED020008EF020008F102000800000000F5
:10002000000000000000000000000000F3020008D3
:10003000F502000800000000F7020008F9020008BD
:10004000FB020008FB020008FB020008FB0200089C
:10005000FB020008FB020008FB020008FB0200088C
:10006000FB020008FB020008FB020008FB0200087C
:10007000FB020008FB020008FB020008FB0200086C
:10008000FB020008FB020008FB0200080000000061
:10009000000000000000000000000000FB0200085B
:1000A000FB020008FB020008FB020008FB0200083C
:1000B000FB020008FB020008FB020008FB0200082C
:1000C000FB020008FB020008FB020008FB0200081C
:1000D000FB020008FB020008FB0200080000000011
:1000E000FB020008FB020008FB0200080000000001
:1000F000000000000000000000000000FB020008FB
:1001000000000000FB020008FB020008FB020008E0
:1001100000000000000000000000000000000000DF
:10012000FB020008FB020008FB020008FB020008BB
:10013000FB020008000000000000000000000000BA
:10014000000000000000000000000000FB020008AA
:10015000FB020008FB020008FB020008FB0200088B
:10016000FB020008FB020008000000000000000085
:10017000000000000000000000000000000000007F
:1001800000000000FB02000800000000000000006A
:10019000FB02000800F002F800F092F80AA090E8D4
:1001A000000C82448344AAF10107DA4501D100F032
:1001B00087F8AFF2090EBAE80F0013F0010F18BF6D
:1001C000FB1A43F0010318471027000030270000F6
:1001D000103A24BF78C878C1FAD8520724BF30C873
:1001E00030C144BF04680C60704700000023002445
:1001F00000250026103A28BF78C1FBD8520728BF37
:1002000030C148BF0B6070476E2900F081817029B2
:1002100000F0C382662902F0AC82652902F0A9824F
:10022000672902F0A682612902F0A58203681B0AF1
:1002300028BF41F08001692900F02E81642900F077
:100240002B81752900F028816F2900F050827829D0
:1002500000F08F82E92900F0EB81E42900F0E881C9
:10026000F52900F0E581EF2900F04D82F82900F032
:100270008E820368DB0928BF41F08001632900F00A
:10028000C387732900F0C887E32900F0D387F329D7
:1002900000F0D887002070471FB502F060FA01F027
:1002A00023F804000020002102F08CF8401C60605C
:1002B0000020002102F070F8E0601FBD10B510BDF5
:1002C00000F0E4FF1146FFF7E7FF01F049FF01F0FE
:1002D000C1F803B4FFF7F2FF03BC01F009F9000015
:1002E0000948804709480047FEE7FEE7FEE7FEE7CA
:1002F000FEE7FEE7FEE7FEE7FEE7FEE70448054906
:10030000054A064B70470000D51C000895010008FF
:100310008000002080060020800200208002002053
:100320001CB50C46064B7B4469460090204600F005
:1003300008F904460020694600F016F920461CBD65
:100340003F020000032A40F2308010F0030C00F05E
:10035000158011F8013BBCF1020F624498BF11F8FF
:1003600001CB00F8013B38BF11F8013BA2F10402B8
:1003700098BF00F801CB38BF00F8013B11F0030330
:1003800000F0DA82083AC0F0088051F8043B083ADD
:1003900051F804CBA0E80810F5E7121D5CBF51F836
:1003A000043B40F8043BAFF30080D20724BF11F8B0
:1003B000013B11F801CB48BF11F8012B24BF00F815
:1003C000013B00F801CB48BF00F8012B7047704794
:1003D0007047704770B5044685690068C10601D54D
:1003E000302600E02026C00707D070BDD4E90121E7
:1003F00030469047206A401C20626D1EF6D570BDC5
:1004000070B5044685690078C00707D170BDD4E98E
:10041000012120209047206A401C20626D1EF6D5E5
:1004200070BD09684A0501D540B27047C905FCD5C1
:1004300000B2704709684A0501D5C0B27047C905C6
:10044000FCD580B2704770B50C460546012A05D030
:100450002878800600D5EA69002302E0012305E040
:100460005B1C934202D2E05C0028F9D1A869E6182F
:10047000C01AA861286A184428622846FFF7AAFF14
:1004800004E0D5E9012114F8010B9047B442F8D3F8
:100490002846FFF7B5FF70BD2DE9F0410646002460
:1004A00010687529314616A510D0FFF7BAFF00284D
:1004B00002DA404213A507E031688A0701D512A588
:1004C00002E0490704D511A5012401E0FFF7B2FFBE
:1004D00000210A2206F1240709E0B0FBF2FCB0FB80
:1004E000F2F302FB1C00303078541846491C0028F7
:1004F000F3D123462A463046BDE8F04100F093BAD6
:10050000000000002D0000002B0000002000000073
:1005100011680268006A530501D508700AE0D30526
:1005200001D5088006E0130603D5C217C1E9000211
:1005300000E008600120704701694A1C02610878E8
:10054000704700B58FB0CDE9013100210591054913
:100550007944CDE903101146684600F029F90FB03F
:1005600000BD0000E5FFFFFF0A6802F8010B0A600A
:10057000704700002DE9FF5F15468A460446DFF804
:10058000AC80F8440027D8E900103E46CDE90010C1
:1005900010E03AF816106A4602A800F057FE411C17
:1005A00007D02178890603D5E269391891420DD820
:1005B0000744761C2078800602D5E069B84205DD44
:1005C000AE42E6DB3AF816000028E2D1A069C01B73
:1005D000A0612046FFF7FEFED8E90010CDE900102B
:1005E000002017E03AF818106A4602A800F02EFE24
:1005F000B0F1FF3F81460BD000250DF1080B05E05F
:10060000D4E901211BF8050090476D1C4D45F7D337
:1006100008F10100B0428046E4DB206A38442062E1
:100620002046FFF7EDFEBDE8FF9F000056220000C8
:100630002DE9F0418046D21D22F007020025D2E9C3
:100640000002F52915A614D0011E72F1000106DA88
:100650000023D0EB030063EB020211A608E0D8F8F8
:1006600000108B0701D50FA602E0490701D50EA6A1
:1006700001251146002408F1240704E000F08EF95A
:1006800030323A55641C50EA0102F7D12B4632460B
:1006900021464046BDE8F04100F0C5B90000000029
:1006A0002D0000002B0000002000000030B40021CD
:1006B00000F1240408E002F00705D208303542EAD0
:1006C0004372DB086554491C52EA0305F3D1046800
:1006D000002310A2250707D5A40600D421B1C469C0
:1006E00001230DA2641EC46130BC00F09CB910B59A
:1006F000044621461068FFF79DFE02462046BDE8ED
:1007000010400023D2E7D21D22F00701D1E90023D7
:10071000CCE700000000000030000000F0B40D46FF
:100720000188090502D5214C7C4402E01F4C7C4421
:100730000E34002100F1240608E002F00F07120930
:10074000E75D42EA03721B097754491C52EA03072A
:10075000F3D102780023120704D5702D06D009B119
:10076000022311342246F0BC00F05DB9012310349D
:10077000F8E770B504460D4621461068FFF75AFEAB
:10078000024629462046BDE870400023C6E7D21D38
:1007900022F00703D3E90023C0E70368126843F09F
:1007A000200303600823C3610023B7E7B8200000DB
:1007B0002DE9F05F894604464FF0000ADFF874B176
:1007C000FB44C0F820A02046E1688847002874D088
:1007D000252806D0D4E901219047206A401C2062D8
:1007E000F1E700265F462046E16888472028054655
:1007F00007DB312D05D2781910F8200C08B106431B
:10080000F1E7B00701D526F00406C4F81CA00027C4
:10081000C4F818A02A2D09D0284601F07DFA38B373
:1008200004EB8708303DC8F8185019E059F8041B4C
:10083000204604EB87029161E1688847012F054655
:1008400018D1E069002820DA26F020061DE0D8F84B
:10085000180000EB800005EB40003038C8F81800A5
:100860002046E1688847054601F056FA0028EED197
:10087000012F0AD02E2D08D12046E16888477F1C21
:100880000546022F46F02006C4DBA069002803DAE3
:10089000404246F00106A061F00701D026F01006A4
:1008A0006C2D0BD0682D09D04C2D39D06A2D35D048
:1008B000742D35D07A2D33D016E038E0E1682F461C
:1008C00020468847B842054609D16C2F26D04FF400
:1008D0008060E168064320468847054604E06C2FA7
:1008E0001AD04FF4807006430DB3A5F141001928CA
:1008F00002D8203546F400664A462946204626603E
:100900004E46FFF781FC80B101280BD0F61D26F082
:10091000070000F1080956E74020E4E78020D8E707
:100920000020D6E706F104094DE7284652E7206A81
:10093000BDE8F09F4820000010B5203AC0F00B80C1
:10094000B1E81850203AA0E81850B1E81850A0E8D3
:100950001850BFF4F5AF5FEA027C24BFB1E818502D
:10096000A0E8185044BF18C918C0BDE810405FEA9D
:10097000827C24BF51F8043B40F8043B08BF704719
:10098000D20728BF31F8023B48BF11F8012B28BF1E
:1009900020F8023B48BF00F8012B704730B5B0F19A
:1009A0000A024FEA900E71F100034EEA817EB0EB2D
:1009B0000E0061EB91014FEA101E4EEA017E10EB32
:1009C0000E0041EB11114FEA102E4EEA016E10EBB2
:1009D0000E0041EB11214FEA104E4EEA014E10EB92
:1009E0000E0041EB1141401841F100014FEAD000E7
:1009F00040EA41704FEAD10110EB80054FEA8104D3
:100A000044EA907444EB01046D1944EB0404521B56
:100A1000A3414FF0000348BF0A3200D530BD401C4F
:100A200041F1000130BD2DE9F0470D46994692464F
:100A3000044600F124080168880604D5E06921F025
:100A40001001216000E00120A84201DD471B00E009
:100A50000027A1697A1902EB0900081AA061207821
:100A6000C00602D42046FFF7B5FC002608E0D4E912
:100A700001211AF806009047206A401C761C20626B
:100A80004E45F4DB2078C0060AD52046FFF7A2FCCD
:100A900006E0D4E9012130209047206A401C206202
:100AA000381EA7F10107F4DC07E0D4E9012118F8AA
:100AB00005009047206A401C2062281EA5F1010510
:100AC000F3DC2046FFF79CFC2078000602D50220CC
:100AD000BDE8F0870120FBE770472DE9FF4F0C468A
:100AE0001E464FF0FF378BB0D2E90001DDF8608081
:100AF0000A908A46C1F30A5505B93D4600210846C9
:100B00004FF00000BAF1000F00F4400005DA00EBEE
:100B100080004FF4400101EA50004FEA9059B9F1CA
:100B2000010F00DDB9460A9850EA4A000ED044F69B
:100B30001050A5F2FF3545432F14B8F1000F1ED019
:100B40007542291E1EDDC9F100021CE0B8F1010F3B
:100B50004FF0000001D0302103E0F24305E02154C2
:100B6000401CB042FBDB30460022002121540B998F
:100B7000C1F80880C1E900200FB0BDE8F08FBD1BAF
:100B80006D1CDEE74A4600DA694206A800F0F0FB79
:100B900006AB93E8070003AB83E8070050460A99C9
:100BA00000F0ADFC8DE80700A0F500501F38009064
:100BB0000398002D0ADD42F21F014A460844002333
:100BC00003A90390684600F016FF09E0A0F5005065
:100BD0004A461F38002303A90390684600F020FF0F
:100BE0008DE807000004000C03D04FF0FF304108EF
:100BF00000E01046B8F1000F03D000220092154625
:100C00001EE0751E05D4FFF7C9FE303262556D1E19
:100C1000F9D5B3460122084302D000227F1C04E02C
:100C20002078302801D100227F1E002A099784D025
:100C30001DE0112D07DAFFF7B1FE303262556D1C51
:100C400050EA0102F5D1084302D00098C8B10EE085
:100C50000021681E05E0235C625C63542254401E40
:100C6000491C8142F7DBAB46A81B401E09900020BF
:100C700004F80B000B98099AC0F80880C0E9002B13
:100C80007AE711264FF0000857E72DE9F04F884624
:100C90000446D21D22F0070191B0D1E90001CDE94F
:100CA0000A0101F021F802460B98C00F01D02D2057
:100CB00007E02068810701D52B2002E0202101EA0E
:100CC000C000032A099001D0072A05DB03464146EC
:100CD000204600F00DFB0BE12078800601D5E0698D
:100CE00000E00620B8F1650F814606D0B8F1660F26
:100CF00018D0B8F1670F70D131E00020B9F1110FB1
:100D0000009001DB112301E009F101030AAA01A906
:100D10000CA8FFF7E2FEDDE90C70002609F10105E1
:100D2000834647E001204B4600904FF000470AAA57
:100D300001A90CA8FFF7D1FEDDE90DB00C995D46C5
:100D4000002610B909F101000D18B9EB050003D414
:100D5000C0F1FF3609F10105A5EB09002BE0B9F15F
:100D6000010F01DA4FF001090020B9F1110F0090D5
:100D7000484601DD112300E003460AAA01A90CA898
:100D8000FFF7ABFEDDE90C704D4600268346207868
:100D900000070AD4AB4500DA5D4601A8012D04DD49
:100DA000411911F8011C302907D04F4502DA17F11B
:100DB000040F04DA012082460FE06D1EEEE7002FDB
:100DC00002DCED1B3E4403E0781CA84200DD7D1CE4
:100DD000B81B00F1010A4FF000472078000703D448
:100DE000AA4501DB4FF0FF3A0021B7F1004F0DF1AA
:100DF00043088DF8431024D002202B23002F01DA62
:100E00007F422D230A21021EA0F1010000DC5FB108
:100E100097FBF1FC97FBF1F201FB1C7C17460CF1F0
:100E2000300C08F801CDEEE7A8F10100037021882D
:100E3000090501D5452100E06521A0F1010800F870
:100E4000011C09980FA9A1EB0807FF1D00B10120A3
:100E5000411901EBEA70A1693844081A401EA061EB
:100E60002078C00602D42046FFF7B4FA099828B1CA
:100E7000D4E901219047206A401C20622078C006F6
:100E800022D52046FFF7A6FA1EE0002E04DBB3456C
:100E900002DD01A8805D00E03020D4E90121904707
:100EA000206A401C2062761CAAF101005FEA000A59
:100EB0000AD100F019FAC0680168405CD4E9012148
:100EC0009047206A401C2062281EA5F10105DCDC49
:100ED00007E0D4E9012118F8010B9047206A401C73
:100EE0002062381EA7F10107F3DC2046FFF788FADD
:100EF000032011B041E600002DE9F04F04460D46F5
:100F0000D21D22F0070089B0D0E900974846394643
:100F100000F0EAFE0246F80F01D02D2307E020681A
:100F2000810701D52B2302E0202101EAC0038DF8BF
:100F300020300BB1012000E00020032A824601D0BE
:100F4000072A04DB2946204600F0D2F93FE1207849
:100F5000800601D40D2500E0E569C7F30A560D2D82
:100F600049DA00214FEA175B08464FF00000002FD6
:100F700000F4400007DA00EB80004FF4400100EB82
:100F8000D07001EA60008115012901DD4FF0FF31C9
:100F900000224FEA850CBCF1180F06D31346ACF1C2
:100FA00018004FF08052C24003E04FF4801323FA40
:100FB0000CF30CF10C0CBCF1200F04D3ACF1200CA1
:100FC00009FA0CF001E007FA0CF000294FF0004894
:100FD00001DD18B90FE00ED140450CD319EB020921
:100FE0005F4121B9404502D19F4329EA0209BBEB89
:100FF000175F00D0761C2088000502D57B48784416
:1010000002E07A487844193808AA302302F80A30F6
:10101000037C0AF10101002E0AF1020A53546A46C8
:1010200002DC4FF0300101E04FF031014FF00108D8
:101030008DF8001002D0A6F2FF3603E059EA47010E
:1010400000D06B4E002D02DC2178090704D54FF04B
:1010500002082E218DF80110C44600210BE0C7F3D1
:1010600003433F01C35C491C6D1E02F8083005298B
:1010700008F1010801DA002DF1DC00210CE000EBA1
:101080001973491C1B786D1E082902F808304FEAB5
:10109000091908F1010801DA002DF0DC21688B063E
:1010A00002D516E0A8F10108E04505DD02EB0803D2
:1010B00013F8013C302BF5D0B8F1000F09DD02EB3D
:1010C000080313F8013C2E2B03D1090701D4A8F122
:1010D0000108002D05DD3E2102F808106D1E08F103
:1010E0000108407C002E02F8080008F1010804DA2B
:1010F0002D20764202F8080002E02B2002F80800BA
:101100000A214FF47A70864208F101080BDB96FB46
:10111000F0F3303302F8083096FBF0F308F10108E1
:1011200000FB136601E0642E0CDB642096FBF0F3F9
:10113000303302F8083096FBF0F308F1010800FBA9
:10114000136601E00A2E06DB96FBF1F0303002F860
:10115000080008F1010896FBF1F001FB1060303047
:1011600002F80800A16908F1010808EB050202EB8A
:101170000A00081AA0612078C00602D42046FFF7B2
:1011800029F9216A08AE01EB0A00206204E0D4E9E3
:10119000012116F8010B9047BAF1010AF7D2207825
:1011A000C00602D52046FFF715F96E4609E016F88D
:1011B000010B3E280FD0D4E901219047206A401C42
:1011C0002062B8F10108F2D22046FFF719F909B000
:1011D0000320BDE8F08F206A2844206203E0D4E9B0
:1011E0000121302090476D1EEBD3F8E72E18000048
:1011F00002FCFFFF10B5436913B1AFF3008001E0BB
:10120000FFF721F9012010BD127800F124010A70C6
:1012100000224A700122EDE711684FF0FF32E9E742
:1012200010B5436913B1AFF3008001E0FFF7A2F9F5
:10123000012010BD128800F1240182840022C284A2
:101240000122EDE711684FF0FF32E9E770B516466D
:101250000C46054600F040F8036893F801010128A8
:1012600006D0FF2C0FD8185D68B101202C7070BD1E
:10127000D3F807013246214603F2071303442846F8
:10128000BDE8704018474FF0FF3070BD754600F064
:10129000EBF8AE4605006946534620F00700854648
:1012A00018B020B5FFF72AF8BDE820404FF000063F
:1012B0004FF000074FF000084FF0000B21F007013E
:1012C000AC46ACE8C009ACE8C009ACE8C009ACE881
:1012D000C0098D467047000010B500F005F8001DEC
:1012E00010BD00BFE1100000004870473C00002026
:1012F0002DE9F0411F46044603260168072A01F440
:10130000006004DB08B116A505E016A503E008B1EE
:1013100015A500E015A521F010002060A069C01EF1
:10132000A0610FB1401EA0612046FFF753F84FB1F6
:10133000D4E9012138469047206A401C2062C01C35
:10134000206206E0206AFAE7D4E9012115F8010BD2
:101350009047761EF8D22046FFF752F8BDE8F0819C
:101360004E414E006E616E00494E4600696E660049
:101370002DE9F047814616468AB0354878440DC8B5
:101380008DE80D0032487844801C03AC0DC884E819
:101390000D0041F69B300844372190FBF1F290FBA1
:1013A000F1F5A5F1800501FB12041B3C02D5644256
:1013B000012000E00020DFF898A080460027FA44D2
:1013C000AAF1BE0A0EE0E0070AD03246684607EBF3
:1013D000470101230AEB810100F022FB8DE80700A1
:1013E00064107F1C002CEED1194F7F44AE3F19E0F2
:1013F000E80715D007EB04100DF1180A90E80E006D
:101400008AE80E00C068F04201D19819089032466F
:10141000012306A903A800F003FB03AB83E8070040
:101420006D10641C002DE3D14FF001033246694674
:10143000B8F1000F03A802D000F0DDFA01E000F0DF
:10144000EFFAC9E90001C9F808200AB0BDE8F08741
:101450004015000010B50446AFF300802046BDE8FB
:101460001040FEF736BF0000004870471C00002007
:101470004FF0013C50F8042B51F8043B9A4221D123
:10148000A2EB0C03934313EACC1317D150F8042BAF
:1014900051F8043B9A4215D1A2EB0C03934313EA93
:1014A000CC130BD150F8042B51F8043B9A4209D1CC
:1014B000A2EB0C03934313EACC13DBD04FF00000F4
:1014C000704700BFD01A01BAB1FA81F101F01801DA
:1014D00022FA01F0CB40C1F12001DBB2C0B2C01A48
:1014E0002CFA01F3D11A914311EAC311E6D17047E6
:1014F00001491820ABBEFEE72600020070475FEAF4
:10150000400C08BF91F0000F4FEA8C234FEAC12234
:1015100043EA51514FEA1C5018BF00F5F0404FEA22
:10152000300018BF41F000415FEA6C5C00F0298098
:10153000BCF1FF3F08BF40F080407047130C06BF6E
:1015400012044FF0100C4FF0000C130E04BF1202E7
:101550000CF1080C130F04BF12010CF1040C930FD3
:1015600004BF92000CF1020CD30F04BF52000CF127
:10157000010C11464FF00002A0F11F00A0EB0C007F
:10158000704711F0004F08BF704731F000413FF441
:10159000D5AF0B0C06BF09044FF0100C4FF0000C38
:1015A0000B0E04BF09020CF1080C0B0F04BF09015C
:1015B0000CF1040C8B0F04BF89000CF1020CCB0F53
:1015C00004BF49000CF1010CCCF12003A0EB0C008E
:1015D00022FA03F302FA0CF241EA030100F10100DE
:1015E000704720F07F4C80EA030023F07F47ACEB8C
:1015F000070303F57C5300F0004003F1FF032DE9DE
:1016000080494FEA154B09B44FEA144325EA0B4EC3
:1016100024EA03480FF2042606EB132749083E7814
:101620005FEA320203FB0667C7F5000707FB06F611
:101630004FEA54374FEAD64606F1020607FB066C1E
:10164000CCF1005C4FEA1C472CEA074C07FB06F480
:101650000CFB06F504EB15464FEA961634BF002046
:101660004FF000404FEAD13706FB07FC4FEA1C4C15
:101670000CFB0BF7D21B03FB0CF761EB07010CFB18
:101680000EF7B0EB074072EB17420CFB08F734BFC4
:10169000A2EB0742B2EB074261EB17414FEA0C4461
:1016A0004FEA910706FB07FC4FEA1C4C0CFB0BF7BB
:1016B000B0EBC74072EB573203FB0CF734BFA2EB21
:1016C000C742B2EBC74261EB57310CFB0EF7B0EBF0
:1016D000C70072EB57720CFB08F734BFA2EBC702CE
:1016E000B2EBC70261EB5771039F4FEA816141EA98
:1016F000921104EBCC044FEAD1374FEA826206FB29
:1017000007FC42EA90124FEA80604FEA1C4C0CFB47
:101710000BF7D21B03FB0CF761EB07010CFB0EF779
:10172000B0EB074072EB17420CFB08F734BFA2EB9B
:101730000742B2EB074261EB17414FEA8C554FEA83
:10174000910704EB9C2406FB07FC4FEA1C4C0CFBA6
:101750000BF7B0EBC74072EB573203FB0CF734BF0B
:10176000A2EBC742B2EBC74261EB57310CFB0EF75D
:10177000B0EBC70072EB57720CFB08F734BFA2EB5B
:10178000C702B2EBC70261EB577115EB4C254FEA6C
:10179000816141EA92114FEA82624FEAD13742EA0F
:1017A000901206FB07FC44F100044FEA80604FEA08
:1017B0001C4C0CFB0BF7D21B03FB0CF761EB070176
:1017C0000CFB0EF7B0EB074072EB17420CFB08F76F
:1017D00034BFA2EB0742B2EB074261EB174115EBB6
:1017E0001C154FEA813141EA92414FEA823242EAC6
:1017F00090424FEA80304FEA0C7644F1000448EA08
:1018000003434EEA0B484FF0000EB2EB080C71EBAD
:10181000030724BF624639464EEB0E0E4FF0000B15
:101820000018524149414BEB0B0BB2EB080C71EB2A
:1018300003077BF1000B24BF624639464EEB0E0EC8
:101840004FF0000B0018524149414BEB0B0BB2EB30
:10185000080C71EB03077BF1000B24BF624639468D
:101860004EEB0E0E51EA020718BF46F0010616EBCA
:101870000E7655F1000254F1000103D5BDE889014F
:10188000BDE80088BDE88901BDE80048B6195241AD
:1018900041EB0101A3F10103704780807F7E7D7CD5
:1018A0007B7A7978777676757473727171706F6EF2
:1018B0006E6D6C6C6B6A6A6968686766666564649D
:1018C000636362616160605F5F5E5E5D5D5C5C5B27
:1018D0005B5A5A5959585857575656555555545496
:1018E000535352525251515050504F4F4F4E4E4DF4
:1018F0004D4D4C4C4C4B4B4B4A4A4A494949484840
:10190000484747474746464645454544444444437F
:1019100043434342424242414141002B9C4630D422
:1019200077002BD01CB54FEA370703B44FF01000F7
:101930004FF01001BAF1000F06D0BCF1000FDCBF70
:1019400040F0080040F008014FF000000FBCBDE877
:1019500010400BF1010BBBF1010F08BF5FEA170745
:1019600022BF12F1010211F101014FF0004143F1D8
:10197000000300F0004043EA00007047F9D3570825
:10198000D0E746EA064613F1400F4FEA16461FDD40
:1019900013F1200FDFBF16430A46002120335B42BC
:1019A000BED0C3F1200746EA064602FA07F74FEA1F
:1019B000164646EA0706C3F1200722FA03F201FAA7
:1019C00007F721FA03F14FF0000342EA0702A7E705
:1019D00046EA020646EA06464FEA164646EA010687
:1019E000BCBF46EA0646360C4FF000034FF000023B
:1019F0004FF0000194E72DE9804C9A46934670B46D
:101A000091E8380007C831EA400C48BF34EA430C7B
:101A100003D5FFF7E6FDFFF780FFF0BCBDE8008CC3
:101A20002DE9804C9A46934670B491E8380007C877
:101A300010F0804F08BF13F0804F03D100F005F87D
:101A4000FFF76BFFF0BCBDE8008C20F07F4780EA19
:101A5000030023F07F4C07EB0C03A3F57C5300F04D
:101A60000040A3F1FE0392F0000F00F0B38095F068
:101A7000000F00F077802DE901494FEA11404FEA4D
:101A8000144621EA004800FB06FC24EA064708FB4E
:101A900006F607FB08F800FB07F718EB06484CEBC7
:101AA000164C4FEA124B18EB07484FEA15464CEB21
:101AB000174022EA0B4E0BFB06FC25EA06470EFBFD
:101AC00006F607FB0EFE0BFB07F71EEB064E4CEB74
:101AD000164C4FF000061EEB074E4CEB174B18EB65
:101AE0000B0840F1000018EB0E0B58EB000840F11A
:101AF00000008F1A4FF000013CBFC943661B14BFA2
:101B0000B5EB040C00213CBFC943F61B4FEA174458
:101B10004EEA8E0E27EA04454FEA1C4704FB076293
:101B20002CEA074C05FB07F70CFB05F604FB0CFC45
:101B300016EB074642EB174216EB0C4642EB1C42F3
:101B40001BEB060658EB0202414146EA9E0601D510
:101B5000BDE80189B619524141EB0101A3F101032E
:101B6000BDE801894FEA14454FEA114724EA0546CA
:101B700021EA074C05FB07F406FB07F70CFB06F10F
:101B800005FB0CFC11EB074144EB17444FEA1247ED
:101B900011EB0C4144EB1C4422EA074C05FB07F215
:101BA00006FB07F70CFB06F605FB0CFC16EB0746DD
:101BB00042EB174216EB0C4642EB1C456A1854F1F7
:101BC000000148BF7047B619524141EB0101A3F132
:101BD0000103704795F0000F37D04FEA11424FEAEA
:101BE000144721EA024624EA074C02FB07F106FBF0
:101BF00007F70CFB06F402FB0CFC14EB074441EB6B
:101C000017414FEA154714EB0C4441EB1C4125EA00
:101C1000074C02FB07F506FB07F70CFB06F602FB79
:101C20000CFC16EB074645EB174516EB0C4645EB4F
:101C30001C42121951F1000148BF7047B6195241B8
:101C400041EB0101A3F1010370474FEA14454FEA4C
:101C5000114724EA054621EA074C05FB07F106FB7C
:101C600007F70CFB06F24FF0000605FB0CFC12EB2D
:101C7000074241EB174112EB0C4251EB1C4148BFAC
:101C80007047921841EB0101A3F101037047000076
:101C90000F48006840F001000D49086000BF0C4883
:101CA000006800F002000028F9D0094808300068F8
:101CB00020F003000649083108600846006820F05B
:101CC000605008600846006820F040400860704797
:101CD000003802400348006840F470000149086081
:101CE0007047000088ED00E003B4019841000098BF
:101CF00050EAC12018BF04204A0D18BF40F001006F
:101D000040F2FF72B2EB515F08BF40F002000128C1
:101D100008BF052002B0704730380A2801D20120E0
:101D200070470020704730B50446F32000F095F866
:101D3000C5B2882000F091F820808A2000F08DF84C
:101D400000B260808C2000F088F800B2A0808E2065
:101D500000F083F8E080902000F07FF800B220814E
:101D6000922000F07AF800B26081942000F075F8BB
:101D700000B2A081962000F070F800B2E0819820B7
:101D800000F06BF800B220829A2000F066F800B2F2
:101D900060829C2000F061F800B2A0829E2000F0DA
:101DA0005CF800B2E08230BD0FB42DE9F0412DEDBA
:101DB000048BFA2000F073F80446E010BDF82810F8
:101DC000A0EB4100BDF92A104843C512BDF8280018
:101DD000C0EB241040430013BDF92C104843861378
:101DE000A8190F4908600846006800EB80008030A1
:101DF0000712384600F02DFB41EC190B9FED090B43
:101E000053EC102B00F03CFB41EC180B00F0F0FA07
:101E100000EE100ABDEC048BBDE8F0015DF814FB88
:101E2000000000207B14AE47E17A843F2DE9F041A9
:101E300007460C4615461E4600F00CF93846FFF7DB
:101E400072FF600140EA8500304300F0FF08414620
:101E5000F42000F04AF8BDE8F08118B5044600F01F
:101E60003FF9EE2000F05EF9204600F05BF900F04B
:101E700021F9EF2000F056F9002000F0FDF88DF870
:101E80000100012000F0F8F88DF8000000F034F9AE
:101E90009DF801009DF8001040EA012018BD1EB514
:101EA000044600F01DF9EE2000F03CF9204600F059
:101EB00039F900F0FFF8EF2000F034F9002000F0CD
:101EC000DBF80290002000F0D7F80190012000F02C
:101ED000D3F8009000F010F902980004019940EA4C
:101EE00001200099084300091EBD30B505460C4687
:101EF00000F0F6F8EE2000F015F9284600F012F98F
:101F0000204600F00FF900F0F7F830BD2DE9F04160
:101F100003461846D91703EB1171C1F30714D917FB
:101F200003EB11710911A3EB0111CDB2204600F0B2
:101F300051F806460120A84087B23069384008B100
:101F4000012000E0002080464046BDE8F0812DE9F8
:101F5000F04103460C461846D91703EB1171C1F343
:101F60000715D91703EB11710911A3EB0111CEB2BB
:101F7000284600F02FF80746012000FA06F80CB1B9
:101F8000404601E04FEA0840B861BDE8F08100003A
:101F900030B5034600241846202803DB7F2801DCE7
:101FA000012500E0002525B1A3F12000074D285CA4
:101FB00001E0074800780446501C20B1914202D14C
:101FC00004F1800000E02046C0B230BD7A2700084E
:101FD000DA2700080146082911D2DFE801F00406DB
:101FE000080A0C10100E074809E0074807E00748E8
:101FF00005E0074803E0074801E0074800BF00BFCD
:102000007047000000000240000402400008024047
:10201000000C024000100240001C024010B50446B3
:10202000012C01D0012000E00020014601231A46C6
:10203000184600F0E1F801210020FFF788FF002199
:102040000846FFF784FF01231A460021184600F0D6
:10205000D3F810BD00B500231A460121184600F040
:10206000CBF801231A460021184600F0C5F80121DB
:102070000020FFF76CFF00BD70B506460025002468
:1020800011E001210020FFF762FF0120FFF73EFF72
:10209000C4F1070188402844C5B200210846FFF773
:1020A00056FF601CC4B2082CEBDB3046FFF7B6FFCE
:1020B000284670BD00B501231A460021184600F0DD
:1020C0009BF801210020FFF742FF01231A46194621
:1020D000184600F091F800210846FFF738FF00BDD0
:1020E00000B501231A461946184600F085F800216C
:1020F0000846FFF72CFF00BD00B500210846FFF79A
:1021000026FF01231A461946184600F075F80121EA
:102110000020FFF71CFF01231A460021184600F09B
:102120006BF800BD30B50546002412E005FA04F056
:10213000012222EAD0111346104600F05DF8012179
:102140000020FFF704FF00210846FFF700FF601C96
:10215000C4B2082CEADB0020FFF760FF012030BD8D
:102160002DED028B88B0FFF793FD00F0B9F8032343
:10217000012211460F48FFF759FE19E00D48016989
:102180000091406918220B49019002A8FEF7DAF885
:1021900002A80FC8FFF708FE10EE104A204600F014
:1021A0006DFA41EC180B53EC182B03A000F0A8F8C3
:1021B000E4E700000400002025372E3266B043001B
:1021C00030B504460D46FFF745FF2946204600F08E
:1021D00001F830BD30B505460C46FFF781FF4E20B3
:1021E000FFF7A0FF2846FFF79DFF2046FFF79AFF65
:1021F000FFF782FF30BD00002DE9F04304460E4694
:10220000174698462046E11704EB1171C1F30719F0
:10221000E11704EB11710911A4EB0111CDB248468D
:10222000FFF7D8FE034623480068012101FA09F1AF
:1022300008432049086018686A00032191408843D8
:1022400018601868690006FA01F108431860022E48
:1022500007D1186A20F00F001862186A40F00100D8
:102260001862012F05D158680121A9400843586020
:1022700005E027B958680121A94088435860D8680B
:102280006A00032191408843D860D868690008FA41
:1022900001F10843D86098686A000321914088439F
:1022A000986098686A000221914008439860BDE8F0
:1022B000F08300003038024030B503460022002091
:1022C0000AE00C5C2E2C03D1541E65B21D5501E0B2
:1022D000541CE2B2441CE0B20C5C002CF1D130BDC5
:1022E00000B500210846FFF76BFF02A000F01AF8C6
:1022F00000BD0000202020202020202020200000E1
:102300000FB400B589B00BA8009001A8009A0A99F3
:10231000FEF706F80020009001A800F003F809B0CD
:102320005DF814FB7EB5044600260DA207CA8DE8B1
:10233000070021466846FFF7BFFF0DE014F8015B78
:102340002E2D09D0C22D07D01DF906203146284672
:1023500000F00CF8701CC6B220780028EED17EBDCB
:10236000FFFFFFFFFFFFFFFFFFFF00002DE9F04130
:1023700005460C461646324621462846FFF708FE1B
:1023800080460120A040C04387B2F9B24046FFF723
:1023900021FFBDE8F081000010B500290AD00878BF
:1023A000002807D005487844FFF762F8002801D0DC
:1023B000002010BD0248784410BD00005205000006
:1023C0004A05000010B500290AD00878002807D077
:1023D00005487844FFF74CF8002801D0002010BDD4
:1023E0000248784410BD0000420500003A05000094
:1023F00021F00042A2F16052B2F5801F01F00043CB
:1024000028BFD2F17F6C0BD95FEA001C43EAC202FD
:1024100042EB507018BF704728BF20F00100704792
:10242000B2F5801FBCBF184670474FEA410C1CF53F
:10243000001F02D2084600F097B970B500F0CAF844
:1024400000000089FFF7F6BF4FF00040A0F58000C4
:10245000704710F0004248BF4042B0FA80F310FAD3
:1024600003F10AD0C3F11D0303F580634FEA415025
:1024700002EB035202EBD12170474FF0000070478E
:10248000DFF848C170B51CEA111E1EBF1CEA131507
:102490009EEA0C0F95EA0C0F00F06F8081EA0304AE
:1024A00023EA4C134EEAD47E21EA4C1141F4801108
:1024B00043F48013AE44A1FB024CA0FB0365AEF1D4
:1024C0007F7E361955EB0C05A1FB034C4CF1000344
:1024D000A0FB021C16EB0C06654153F100030942F8
:1024E00018BF46F0010613F4007F0BD14FEA033109
:1024F0004FEA0530340341EA155140EA16506FF0B7
:1025000003020AE04FEAC3214FEAC520F40241EA80
:10251000555140EA56506FF0020202EB2E4201EB99
:10252000025585EACE710AD05FEA440C18BF24F048
:10253000004450F1000041F1000120EAD47040F263
:10254000FE7C624500D270BDA84214BF4FF08044AB
:102550004FF04044002E08BF0024BEF1806FA8BF9A
:10256000A1F1C041BDE8704080F282804FF00000D0
:1025700001F1C04101F0004170479EEA0C0F0CEAE6
:10258000131518BF95EA0C0F06D04FF0000081EA32
:10259000030E0EF0004170BD00F01CF88900013EF2
:1025A00000F007B800F009B84FEA430C5FEA5C5C42
:1025B00008D081EA030100F05BB84FEA410C5FEA02
:1025C0005C5CF6D14FF00000014970470000FF0746
:1025D0000000F87F0EF1020E2EF0030E5EF8046B81
:1025E000364205D4012A43EB030515F5001F12D826
:1025F000012841EB010C1CF5001F0CD80ED14FEA4D
:10260000D17C15F5001F0CEB4C0C0CF1020C08BF33
:102610004CEBD37C04E04FF0080C01E04FEAD37C94
:102620000CEB4C0526FA05F606F00706B6F1040C8D
:1026300006D20EEB860CBDE870404CF0010C6047F2
:10264000DFE80CF0090B02024FF000414FF00000F0
:10265000A1F5002170BD19461046012851EB010477
:1026600018BFD4F5001484BF002001F0004170BDF4
:102670000808A0F500114FEA3101704743004FEA06
:10268000D30C4FEA3C0C43401FBF40070CF1605194
:1026900013F0FE4F70471CF0006F03D100200CF0C8
:1026A000004170470CF0004343EA507010B540EA17
:1026B000CC0000F00EF800BF000000924FEA0001CD
:1026C000FFF7D6BF4FF000414FF00000A1F5002109
:1026D00070470EF1020E2EF0030E5EF8044B2442FA
:1026E00004D44FEA4102B2F17F4F11D84FEA4003C0
:1026F000B3F17F4F0CD80ED14FEAD07CB2F17F4FAF
:102700000CEB4C0C0CF1020C08BF4CEBD17C04E040
:102710004FF0080C01E04FEAD17C0CEB4C0324FA9B
:1027200003F404F00704B4F1040C06D20EEB840C9D
:10273000BDE810404CF0010C6047DFE80CF00708E2
:1027400002024FF00040A0F5800010BD0846420094
:1027500018BFD2F1807288BF00F0004010BD4FF06A
:102760004070E1EE100A7047FF2141EAD050C005E9
:102770007047FEF78ABAFEF7BFBB0086227E6DD295
:102780004620290B2170104080523F065B4F666D3A
:102790007D077F6F090D614843D35F777C395E7990
:1027A000713D76301E753815373F736B336D783E4B
:1027B0003E2A766E5B39640F2308025F7C585E7B8D
:1027C000716F74100C753014545C7367506D781C05
:1027D0001C14766E5B463070010063000000000040
:1027E0000000000030313233343536373839414259
:1027F0004344454640305800303132333435363763
:10280000383961626364656640307800040000080E
:102810000000000000000002000100001030313212
:1028200033343536373839616263646566787000F1
:1028300030313233343536373839414243444546F6
:102840005850000002400000000000A000000000FE
:1028500005400000000000C8000000000C4000001F
:102860000000409C00000000194000000020BCBE99
:102870000000000034400000BFC91B8E00000004AF
:10288000B5400000504BCFD06607E2CF01000000FA
:102890006C4100003E8251AADFEEA7340100000027
:1028A000D9420000DCB5A0E23A301F97FFFFFFFFDE
:1028B000B4450000FD25A0C8E9A3C14FFFFFFFFFFD
:1028C000FF3F00000000008000000000FF3F00000C
:1028D0000000008000000000242A00080000002002
:1028E00004000000D0010008282A0008040000208D
:1028F0007C060000EC0100081C0000004300000002
:10290000F8FFFFFF0C0000000E0000000F000000A9
:102910002E0000001001000043000000F8FFFFFF40
:1029200000404040404040404040414141414140E2
:102930004040404040404040404040404040404097
:102940004005020202020202020202020202020226
:10295000022020202020202020202002020202022B
:102960000202909090909090101010101010101083
:10297000101010101010101010101010020202028F
:1029800002028888888888880808080808080808D3
:1029900008080808080808080808080802020202CF
:1029A00040000000000000000000000000000000E7
:1029B0000000000000000000000000000000000017
:1029C0000000000000000000000000000000000007
:1029D00000000000000000000000000000000000F7
:1029E00000000000000000000000000000000000E7
:1029F00000000000000000000000000000000000D7
:102A000000000000000000000000000000000000C6
:102A100000000000000000000000000000000000B6
:082A20000000000000000000AE
:040000050800019559
:00000001FF
