:020000040800F2
:10000000A00600203D020008450200084702000843
:10001000490200084B0200084D02000800000000E1
:100020000000000000000000000000004F02000877
:1000300051020008000000005302000855020008A9
:10004000570200085702000857020008570200082C
:10005000570200085702000857020008570200081C
:10006000570200085702000857020008570200080C
:1000700057020008570200085702000857020008FC
:10008000570200085702000857020008000000004D
:1000900000000000000000000000000057020008FF
:1000A00057020008570200085702000857020008CC
:1000B00057020008570200085702000857020008BC
:1000C00057020008570200085702000857020008AC
:1000D00057020008570200085702000800000000FD
:1000E00057020008570200085702000800000000ED
:1000F000000000000000000000000000570200089F
:1001000000000000570200085702000857020008CC
:1001100000000000000000000000000000000000DF
:10012000570200085702000857020008570200084B
:10013000570200080000000000000000000000005E
:10014000000000000000000000000000570200084E
:10015000570200085702000857020008570200081B
:1001600057020008570200080000000000000000CD
:10017000000000000000000000000000000000007F
:10018000000000005702000800000000000000000E
:100190005702000800F002F800F041F80AA090E8C9
:1001A000000C82448344AAF10107DA4501D100F032
:1001B00036F8AFF2090EBAE80F0013F0010F18BFBE
:1001C000FB1A43F001031847100B0000300B00002E
:1001D000103A24BF78C878C1FAD8520724BF30C873
:1001E00030C144BF04680C60704700000023002445
:1001F00000250026103A28BF78C1FBD8520728BF37
:1002000030C148BF0B607047642900F07380002044
:1002100070471FB500F052FD1FBD10B510BD00F0B6
:1002200034FA1146FFF7F5FF00F050FB00F052FAE8
:1002300003B4FFF7F2FF03BC00F05AFA0948804705
:1002400009480047FEE7FEE7FEE7FEE7FEE7FEE7B8
:10025000FEE7FEE7FEE7FEE704480549054A064BD0
:10026000704700004507000895010008A000002025
:10027000A0060020A0020020A00200200FB41CB5A0
:10028000074B06AA7B4469460090059800F0E5F903
:100290000020694600F0F4F91CBC5DF814FB000076
:1002A000F903000070B5044685690068C10601D5F0
:1002B000302600E02026C00707D070BDD4E9012118
:1002C00030469047206A401C20626D1EF6D570BDF6
:1002D00070B5044685690078C00707D170BDD4E9C0
:1002E000012120209047206A401C20626D1EF6D517
:1002F00070BD00002DE9F041064600241068752904
:10030000314616A510D0AFF30080002802DA404233
:1003100013A507E031688A0701D512A502E0490755
:1003200004D511A5012401E0AFF3008000210A22C9
:1003300006F1240709E0B0FBF2FCB0FBF2F302FB8C
:100340001C00303078541846491C0028F3D123464D
:100350002A463046BDE8F04100F020B90000000018
:100360002D0000002B000000200000002DE9F05FB0
:10037000894604464FF0000ADFF874B1FB44C0F828
:1003800020A02046E1688847002874D0252806D0A0
:10039000D4E901219047206A401C2062F1E7002641
:1003A0005F462046E16888472028054607DB312D57
:1003B00005D2781910F8200C08B10643F1E7B00710
:1003C00001D526F00406C4F81CA00027C4F818A024
:1003D0002A2D09D0284600F0BFF938B304EB87086E
:1003E000303DC8F8185019E059F8041B204604EBBA
:1003F00087029161E1688847012F054618D1E069BD
:10040000002820DA26F020061DE0D8F8180000EBBE
:10041000800005EB40003038C8F818002046E1683D
:100420008847054600F098F90028EED1012F0AD040
:100430002E2D08D12046E16888477F1C0546022FF3
:1004400046F02006C4DBA069002803DA404246F0EB
:100450000106A061F00701D026F010066C2D0BD02C
:10046000682D09D04C2D39D06A2D35D0742D35D05A
:100470007A2D33D016E038E0E1682F4620468847D1
:10048000B842054609D16C2F26D04FF48060E16850
:10049000064320468847054604E06C2F1AD04FF4E7
:1004A000807006430DB3A5F14100192802D820350C
:1004B00046F400664A462946204626604E46FFF727
:1004C000A3FE80B101280BD0F61D26F0070000F135
:1004D000080956E74020E4E78020D8E70020D6E767
:1004E00006F104094DE7284652E7206ABDE8F09F6F
:1004F0004609000010B5431C02E010F8011B71B161
:100500008107FAD14FF0013202C88C1A8C4314EAE9
:10051000C211F9D0C01A0A0603D0C01E10BDC01AFD
:1005200010BD0A0401D0801E10BD0902FCD0401E7F
:1005300010BD10B5203AC0F00B80B1E81850203A39
:10054000A0E81850B1E81850A0E81850BFF4F5AF73
:100550005FEA027C24BFB1E81850A0E8185044BFFD
:1005600018C918C0BDE810405FEA827C24BF51F86A
:10057000043B40F8043B08BF7047D20728BF31F85E
:10058000023B48BF11F8012B28BF20F8023B48BFAF
:1005900000F8012B70477047704770472DE9F0470E
:1005A0000D4699469246044600F1240801688806E3
:1005B00004D5E06921F01001216000E00120A8428B
:1005C00001DD471B00E00027A1697A1902EB090051
:1005D000081AA0612078C00602D42046FFF762FE08
:1005E000002608E0D4E901211AF806009047206AA5
:1005F000401C761C20624E45F4DB2078C0060AD5EC
:100600002046FFF74FFE06E0D4E901213020904755
:10061000206A401C2062381EA7F10107F4DC07E0C5
:10062000D4E9012118F805009047206A401C206297
:10063000281EA5F10105F3DC2046FFF749FE2078CE
:10064000000602D50220BDE8F0870120FBE700008C
:1006500001694A1C02610878704700B58FB0CDE986
:1006600001310021059105497944CDE90310114676
:100670006846FFF77BFE0FB000BD0000E5FFFFFFFF
:100680000A6802F8010B0A607047754600F02CF802
:10069000AE4605006946534620F00700854618B06F
:1006A00020B5FFF7D9FDBDE820404FF000064FF020
:1006B00000074FF000084FF0000B21F00701AC4697
:1006C000ACE8C009ACE8C009ACE8C009ACE8C009B6
:1006D0008D46704710B50446AFF300802046BDE854
:1006E0001040FFF7A5BD0000004870474000002003
:1006F00001491820ABBEFEE726000200704700004B
:100700000F48006840F001000D49086000BF0C4828
:10071000006800F002000028F9D00948083000689D
:1007200020F003000649083108600846006820F000
:10073000605008600846006820F04040086070473C
:10074000003802400348006840F470000149086026
:100750007047000088ED00E030380A2801D20120FF
:10076000704700207047014601F00F000A1102EBAC
:10077000820200EB4200C0B2704707E0002100E0B7
:10078000491C40F67B429142FADB401E0028F5DC12
:1007900070472DE9F04103461846D91703EB117154
:1007A000C1F30714D91703EB11710911A3EB011160
:1007B000CDB2204600F066F806460120A84087B278
:1007C0003069384008B1012000E0002080464046F2
:1007D000BDE8F0812DE9F04103460C461846D917D3
:1007E00003EB1171C1F30715D91703EB117109114F
:1007F000A3EB0111CEB2284600F044F807460120D1
:1008000000FA06F80CB1404601E04FEA0840B86132
:10081000BDE8F08102460021002008E0074B5B5C48
:10082000934202D1064B585C05E04B1CD9B2034BF6
:100830005B5C002BF2D100BF70470000000000207D
:1008400007000020F0B504460E4615460027204656
:10085000302803DB392801DC012100E0002111B13F
:10086000A4F1300002E02046FFF7D4FFC7B2681CB5
:1008700020B1AE4202D107F1800000E03846C0B29C
:10088000F0BD00000146082911D2DFE801F004069E
:10089000080A0C10100E074809E0074807E007484F
:1008A00005E0074803E0074801E0074800BF00BF34
:1008B00070470000000002400004024000080240AF
:1008C000000C024000100240001C024008B5FFF777
:1008D00017FF022000F096F8134800F004F922E018
:1008E0001149124800F0C0F81048008800900F48E5
:1008F000438882880EA11348FFF7C0FC1148FFF718
:10090000F9FD104944180948808900900748438937
:1009100002890DA12046FFF7B1FC0A4800F042F819
:100920001420FFF72AFFDBE70D0000203200002033
:10093000253032642E253032642E2530326420205A
:100940000000000014000020253032642E253032D3
:10095000642E3230253032640000000000B50020E3
:1009600000F071F9002000F06EF900BD10B50446EA
:100970002246FF21092000F05CF822460F210A20C0
:1009800000F057F8224607210B2000F052F82246CB
:1009900001210C2000F04DF8224600210F2000F02C
:1009A00048F810BDF0B585B0044600250027142294
:1009B0000FA16846FFF7BDFD2146684600F004F927
:1009C00010E03846791CCFB2265C2E2E09D0C22EFC
:1009D00007D01DF905202946304600F04CF9681C67
:1009E000C5B200BFE05D0028EBD105B0F0BD00004E
:1009F000FFFFFFFFFFFFFFFFFFFFFFFFFFFFFFFF07
:100A0000FFFF000010B5044600F0F2F800220121BB
:100A1000032000F085F801210320FFF7DBFE05E04D
:100A2000611EC9B20C460846FFF7A0FF002CF7D1A3
:100A300010BD70B506460C46154600210320FFF791
:100A4000C9FE304600F0FFF8204600F0FCF801E057
:100A5000FFF784FF281EA5F10101CDB2F8D10121D5
:100A60000320FFF7B7FE70BD70B505460C460121A7
:100A70000420FFF7AFFE922000F0E5F800F0C9F87F
:100A800000F07F063046FFF76EFE207000F0C1F8E0
:100A90000646FFF768FE607000F0BBF80646FFF7F9
:100AA00062FEA07000F0B5F80646FFF75CFEE0704D
:100AB00000F0AFF80646FFF756FE207100F0A9F8E7
:100AC0000646FFF750FE607100F0A3F80646FFF7F8
:100AD0004AFEA07100210420FFF77CFE2146284633
:100AE00000F00FF870BD10B5044600F081F8002248
:100AF0000121042000F014F800210420FFF76AFE11
:100B000010BD0A7802804A7842808A788280CA784A
:100B1000C2800A7902814A7942818A79828170474A
:100B20002DE9F04104460F4616462046E11704EB36
:100B30001171C1F30718E11704EB11710911A4EB4E
:100B40000111CDB24046FFF79DFE03461D480068E7
:100B5000012101FA08F108431A49086018686A007F
:100B600003219140884318601868690007FA01F171
:100B700008431860012E05D159680120A84001439F
:100B8000596005E026B959680120A84081435960A1
:100B9000D8686A00032191408843D860D8686A0009
:100BA000002191400843D86098686A000321914071
:100BB0008843986098686A000321914008439860D0
:100BC000BDE8F0813038024030B5034600200022F5
:100BD0000AE08C5C2E2C03D1441E65B21D5501E049
:100BE000441CE0B2541CE2B28C5C002CF1D130BD4C
:100BF00000B5002201211046FFF792FF00220121DB
:100C00000846FFF78DFF002211460220FFF788FFFC
:100C100000BD30B50025002411E000210846FFF793
:100C2000D9FD0220FFF7B5FDC4F107018840284433
:100C3000C5B201210020FFF7CDFD601CC4B2082C15
:100C4000EBDB284630BD30B50546002410E000211E
:100C50000846FFF7BFFD05FA04F0C0F3C0110120FC
:100C6000FFF7B8FD01210020FFF7B4FD601CC4B2FE
:100C7000082CECDB30BD2DE9F04305460C4616464A
:100C80002046E11704EB5171C1F3C7072046E11775
:100C900004EB5171C910A4EBC10101F0FF08324609
:100CA00021462846FFF7CEFD814608F10101C8B272
:100CB0003A464946FFF7BDFEBDE8F0834FF040706D
:100CC000E1EE100A70470400000800000000000078
:100CD0000002000100001000F80C000800000020D5
:100CE00014000000D00100080C0D000814000020C2
:100CF0008C060000EC0100082D45484C5020000AED
:0C0D00000B0C0D0E0F00000000000000A6
:040000050800019559
:00000001FF
