:020000040800F2
:100000008006002021020008290200082B020008B7
:100010002D0200082F020008310200080000000035
:100020000000000000000000000000003302000893
:1000300035020008000000003702000839020008FD
:100040003B0200083B0200083B0200083B0200089C
:100050003B0200083B0200083B0200083B0200088C
:100060003B0200083B0200083B0200083B0200087C
:100070003B0200083B0200083B0200083B0200086C
:100080003B0200083B0200083B02000800000000A1
:100090000000000000000000000000003B0200081B
:1000A0003B0200083B0200083B0200083B0200083C
:1000B0003B0200083B0200083B0200083B0200082C
:1000C0003B0200083B0200083B0200083B0200081C
:1000D0003B0200083B0200083B0200080000000051
:1000E0003B0200083B0200083B0200080000000041
:1000F0000000000000000000000000003B020008BB
:10010000000000003B0200083B0200083B02000820
:1001100000000000000000000000000000000000DF
:100120003B0200083B0200083B0200083B020008BB
:100130003B0200080000000000000000000000007A
:100140000000000000000000000000003B0200086A
:100150003B0200083B0200083B0200083B0200088B
:100160003B0200083B020008000000000000000005
:10017000000000000000000000000000000000007F
:10018000000000003B02000800000000000000002A
:100190003B02000800F002F800F033F80AA090E8F3
:1001A000000C82448344AAF10107DA4501D100F032
:1001B00028F8AFF2090EBAE80F0013F0010F18BFCC
:1001C000FB1A43F001031847880900009809000052
:1001D0000023002400250026103A28BF78C1FBD850
:1001E000520728BF30C148BF0B607047692900F033
:1001F0007380002070471FB500F09FFC1FBD10B535
:1002000010BD00F0A6F91146FFF7F5FF00F090FBD6
:1002100000F0C4F903B4FFF7F2FF03BC00F0CCF91F
:100220000948804709480047FEE7FEE7FEE7FEE78A
:10023000FEE7FEE7FEE7FEE7FEE7FEE704480549C6
:10024000054A064B704700000D060008950100089E
:100250008000002080060020800200208002002014
:100260000FB41CB5074B06AA7B446946009005985D
:1002700000F057F90020694600F066F91CBC5DF8F3
:1002800014FB0000DD02000070B5044685690068BB
:10029000C10601D5302600E02026C00707D070BD7A
:1002A000D4E9012130469047206A401C20626D1E2F
:1002B000F6D570BD70B5044685690078C00707D1D2
:1002C00070BDD4E9012120209047206A401C2062A3
:1002D0006D1EF6D570BD00002DE9F04106460024E4
:1002E00010687529314616A510D0AFF3008000289C
:1002F00002DA404213A507E031688A0701D512A54A
:1003000002E0490704D511A5012401E0AFF3008004
:1003100000210A2206F1240709E0B0FBF2FCB0FB41
:10032000F2F302FB1C00303078541846491C0028B8
:10033000F3D123462A463046BDE8F04100F092B89A
:10034000000000002D0000002B0000002000000035
:100350002DE9F0474FF0000A89460446C0F820A076
:100360002046E1688847002876D0252806D0D4E9C1
:1003700001219047206A401C2062F1E7E168204695
:1003800000258847C4F81CA006460027C4F818A01A
:100390002A2E09D0304600F043F938B304EB870821
:1003A000303EC8F8186019E059F8041B204604EBE9
:1003B00087029161E1688847012F064618D1E069FC
:1003C000002820DA25F020051DE0D8F8180000EB01
:1003D000800006EB40003038C8F818002046E1687D
:1003E0008847064600F01CF90028EED1012F0AD0FC
:1003F0002E2E08D12046E16888477F1C0646022F32
:1004000045F02005C4DBA069002803DA404245F02E
:100410000105A061E80701D025F01005B6B1A6F1ED
:100420004100192802D8203645F400654A46314675
:10043000204625604D46FFF7D9FE58B1012806D069
:10044000ED1D25F0070000F1080989E704E005F13A
:10045000040985E730468AE7206ABDE8F0877047DF
:10046000704770472DE9F0470D469946924604467D
:1004700000F124080168880604D5E06921F0100124
:10048000216000E00120A84201DD471B00E00027B9
:10049000A1697A1902EB0900081AA0612078C00648
:1004A00002D42046FFF7F0FE002608E0D4E901213F
:1004B0001AF806009047206A401C761C20624E45C0
:1004C000F4DB2078C0060AD52046FFF7DDFE06E003
:1004D000D4E9012130209047206A401C2062381E58
:1004E000A7F10107F4DC07E0D4E9012118F80500C1
:1004F0009047206A401C2062281EA5F10105F3DC0C
:100500002046FFF7D7FE2078000602D50220BDE87E
:10051000F0870120FBE7000001694A1C02610878AE
:10052000704700B58FB0CDE9013100210591054933
:100530007944CDE9031011466846FFF709FF0FB073
:1005400000BD0000E5FFFFFF0A6802F8010B0A602A
:100550007047754600F02CF8AE46050069465346D4
:1005600020F00700854618B020B5FFF767FEBDE80C
:1005700020404FF000064FF000074FF000084FF00A
:10058000000B21F00701AC46ACE8C009ACE8C0099B
:10059000ACE8C009ACE8C0098D46704710B5044608
:1005A000AFF300802046BDE81040FFF733BE0000E7
:1005B000004870472000002001491820ABBEFEE72C
:1005C00026000200704700000F48006840F001005C
:1005D0000D49086000BF0C48006800F002000028C8
:1005E000F9D009480830006820F0030006490831B6
:1005F00008600846006820F06050086008460068FF
:1006000020F040400860704700380240034800680E
:1006100040F47000014908607047000088ED00E078
:1006200030380A2801D20120704700207047014667
:100630004A1001F4807018B102F07F00A0F180022E
:1006400010B2704707E0002100E0491C40F67B42F1
:100650009142FADB401E0028F5DC70472DE9F0419D
:1006600003461846D91703EB1171C1F30714D917C4
:1006700003EB11710911A3EB0111CDB2204600F07B
:10068000B5F806460120A84087B23069384008B165
:10069000012000E0002080464046BDE8F0812DE9C1
:1006A000F04103460C461846D91703EB1171C1F30C
:1006B0000715D91703EB11710911A3EB0111CEB284
:1006C000284600F093F80746012000FA06F80CB11E
:1006D000404601E04FEA0840B861BDE8F08110B53E
:1006E000044600F0F4F90821204600F004FA00F076
:1006F000FCF910BD30B50546284600F019F804464F
:100700002046FFF794FF30BD30B504460D4600F09B
:10071000ABF90A2000F01CF82146012000F036F861
:100720002946022000F032F8EE20FFF7D8FF30BD56
:1007300030B50546002400F0CAF90821284600F02B
:10074000DAF900F0A2F9044600F0CFF9204630BDF6
:1007500010B50446002C17DD00F0B9F908210C2073
:1007600000F0C9F90821204600F0C5F93220FFF752
:1007700069FF00F0BAF9AC20FFF7DAFFA04201D11F
:10078000002010BD0120FCE70220FAE730B5054645
:100790000C4600F09CF90821284600F0ACF96000F6
:1007A000102100F0A8F91420FFF74CFF00F09DF98C
:1007B00030BD30B50346002012B1012A14D108E043
:1007C00001249C400C400CB1012400E00024204690
:1007D0000AE0C3F1070580242C410C400CB1012430
:1007E00000E00024204600BF00BF30BD01460829BC
:1007F00011D2DFE801F00406080A0C10100E0748B9
:1008000009E0074807E0074805E0074803E0074814
:1008100001E0074800BF00BF704700000000024031
:100820000004024000080240000C02400010024098
:10083000001C024000B501210846FFF730FF0A20E6
:10084000FFF700FF00210120FFF729FF0F20FFF72E
:10085000F9FE00BD10B5044600210846FFF71FFF52
:10086000204600F031F810BD10B5044601210020EB
:10087000FFF715FF204600F027F810BD10B5002245
:100880000121104600F09CF800220121084600F0EA
:1008900097F8002407E00B49085D0022012100F0D1
:1008A0008FF8601CC4B2082CF5DB0220FFF7D2FFE2
:1008B0003820FFF7CFFF0C20FFF7CCFF0620FFF713
:1008C000C9FF10BD440B000870B5054600240CE0BC
:1008D000012229462046FFF76CFF06460549085DC0
:1008E0003146FFF7DCFE601CC4B2082CF0DBFFF7DA
:1008F000A1FF70BD440B0008F0B506460F46144634
:100900000A49895D3944C8B2FFF7A4FF0AE014F828
:10091000015BB02D00D1DF25C22D02D02846FFF7A4
:10092000A3FF00BF20780028F1D1F0BD4C0B0008D8
:10093000FFF74AFEFFF7A2FF6FF004010A20FFF75E
:10094000E3FEA120FFF7D6FE14490860A220FFF7BE
:10095000D1FE124948600846436811A10268144854
:10096000FFF77EFC124A00210846FFF7C5FF13E09F
:10097000AA20FFF7BFFE0949886008460DA18268DA
:100980000B48FFF76DFC0A4A00210120FFF7B4FF76
:100990004FF4FA70FFF756FEEAE70000000000206F
:1009A000483A253369B0432C4C3A253369B04300AB
:1009B0000C00002054656D703A253469B043000086
:1009C0002DE9F04104460F4616462046E11704EB98
:1009D0001171C1F30718E11704EB11710911A4EBB0
:1009E0000111CDB24046FFF701FF03461D480068E4
:1009F000012101FA08F108431A49086018686A00E1
:100A000003219140884318601868690007FA01F1D2
:100A100008431860012E05D159680120A840014300
:100A2000596005E026B959680120A8408143596002
:100A3000D8686A00032191408843D860D8686A006A
:100A4000012191400843D86098686A0003219140D1
:100A50008843986098686A00032191400843986031
:100A6000BDE8F0813038024000B5002201210B20A2
:100A7000FFF7A6FF002201210C20FFF7A1FF0022B3
:100A800001210D20FFF79CFF00BD30B5002500229D
:100A900011460B20FFF794FF00240FE000210C20EB
:100AA000FFF7FDFD0B20FFF7D9FDA040284405B25C
:100AB00001210C20FFF7F3FD601CC4B2092CEDDB13
:100AC000002201210B20FFF77BFF284630BD00B537
:100AD00000210D20FFF7E3FD01210C20FFF7DFFDD2
:100AE00001210D20FFF7DBFD00BD00B500210D2029
:100AF000FFF7D5FD00BD70B505460E460022012169
:100B00000B20FFF75DFF00240FE000210C20FFF712
:100B1000C6FD45FA04F000F001010B20FFF7BFFD10
:100B200001210C20FFF7BBFD641CB442EDDB002269
:100B300011460B20FFF744FF70BD4FF04070E1EE0F
:100B4000100A7047020304050607080980C094D400
:100B5000600B00080000002080060000D0010008A3
:040000050800019559
:00000001FF
