:020000040800F2
:100000007006002031020008390200083B02000897
:100010003D0200083F020008410200080000000005
:100020000000000000000000000000004302000883
:1000300045020008000000004702000849020008CD
:100040004B0200084B0200084B0200084B0200085C
:100050004B0200084B0200084B0200084B0200084C
:100060004B0200084B0200084B0200084B0200083C
:100070004B0200084B0200084B0200084B0200082C
:100080004B0200084B0200084B0200080000000071
:100090000000000000000000000000004B0200080B
:1000A0004B0200084B0200084B0200084B020008FC
:1000B0004B0200084B0200084B0200084B020008EC
:1000C0004B0200084B0200084B0200084B020008DC
:1000D0004B0200084B0200084B0200080000000021
:1000E0004B0200084B0200084B0200080000000011
:1000F0000000000000000000000000004B020008AB
:10010000000000004B0200084B0200084B020008F0
:1001100000000000000000000000000000000000DF
:100120004B0200084B0200084B0200084B0200087B
:100130004B0200080000000000000000000000006A
:100140000000000000000000000000004B0200085A
:100150004B0200084B0200084B0200084B0200084B
:100160004B0200084B0200080000000000000000E5
:10017000000000000000000000000000000000007F
:10018000000000004B02000800000000000000001A
:100190004B02000800F002F800F03BF80AA090E8DB
:1001A000000C82448344AAF10107DA4501D100F032
:1001B00030F8AFF2090EBAE80F0013F0010F18BFC4
:1001C000FB1A43F0010318470C1E00001C1E000020
:1001D0000023002400250026103A28BF78C1FBD850
:1001E000520728BF30C148BF0B607047662901F035
:1001F0009E86002070471FB501F08FFE00F054FB73
:1002000004000020002101F027FBE0601FBD10B5B5
:1002100010BD00F049FC1146FFF7EDFF01F074F945
:1002200000F067FC03B4FFF7F2FF03BC00F0AAFC88
:100230000948804709480047FEE7FEE7FEE7FEE77A
:10024000FEE7FEE7FEE7FEE7FEE7FEE704480549B6
:10025000054A064B70470000691300089501000825
:100260007000002070060020700200207002002044
:100270000FB41CB5074B06AA7B446946009005984D
:1002800000F0F9FA0020694600F008FB1CBC5DF89C
:1002900014FB00002106000070B504468569006863
:1002A000C10601D5302600E02026C00707D070BD6A
:1002B000D4E9012130469047206A401C20626D1E1F
:1002C000F6D570BD70B5044685690078C00707D1C2
:1002D00070BDD4E9012120209047206A401C206293
:1002E0006D1EF6D570BD2DE9F0474FF0000A894626
:1002F0000446C0F820A02046E1688847002876D050
:10030000252806D0D4E901219047206A401C2062AC
:10031000F1E7E168204600268847C4F81CA005469E
:100320000027C4F818A02A2D09D0284601F03EF86D
:1003300038B304EB8708303DC8F8185019E059F875
:10034000041B204604EB87029161E1688847012F76
:10035000054618D1E069002820DA26F020061DE0C5
:10036000D8F8180000EB800005EB40003038C8F8E2
:1003700018002046E1688847054601F017F8002874
:10038000EED1012F0AD02E2D08D12046E1688847F2
:100390007F1C0546022F46F02006C4DBA06900281A
:1003A00003DA404246F00106A061F00701D026F0D2
:1003B00010066C2D0AD0682D08D04C2D39D06A2D2E
:1003C00035D0742D35D07A2D33D016E0E1682F4624
:1003D00020468847B84205460AD16C2F27D04FF4F3
:1003E0008060E168064320468847054605E027E02F
:1003F0006C2F1AD04FF4807006430DB3A5F1410065
:10040000192802D8203546F400664A462946204677
:1004100026604E46FFF7EAFE80B101280BD0F61D9C
:1004200026F0070000F1080965E74020E4E7802096
:10043000D7E70020D5E706F104095CE7284661E725
:10044000206ABDE8F08770477047704770472DE914
:10045000FF4F0C461E464FF0FF378BB0D2E900012C
:10046000DDF860800A908A46C1F30A5505B93D4619
:10047000002108464FF00000BAF1000F00F44000E0
:1004800005DA00EB80004FF4400101EA50004FEA2A
:100490009059B9F1010F00DDB9460A9850EA4A00B7
:1004A0000ED044F61050A5F2FF3545432F14B8F195
:1004B000000F1ED07542291E1EDDC9F100021CE08E
:1004C000B8F1010F4FF0000001D0302103E0F243FA
:1004D00005E02154401CB042FBDB304600220021E5
:1004E00021540B99C1F80880C1E900200FB0BDE884
:1004F000F08FBD1B6D1CDEE74A4600DA694206A894
:1005000000F05CFA06AB93E8070003AB83E8070052
:1005100050460A9900F03DFB8DE80700A0F5005019
:100520001F3800900398002D0ADD42F21F014A4651
:100530000844002303A90390684600F0A6FD09E0E3
:10054000A0F500504A461F38002303A903906846CF
:1005500000F0B0FD8DE807000004000C03D04FF060
:10056000FF30410800E01046B8F1000F03D0002230
:10057000009215461EE0751E05D400F099F9303240
:1005800062556D1EF9D5B3460122084302D0002200
:100590007F1C04E02078302801D100227F1E002A31
:1005A000099784D01DE0112D07DA00F081F930326F
:1005B00062556D1C50EA0102F5D1084302D0009843
:1005C000C8B10EE00021681E05E0235C625C635444
:1005D0002254401E491C8142F7DBAB46A81B401E3B
:1005E0000990002004F80B000B98099AC0F80880C5
:1005F000C0E9002B7AE711264FF0000857E72DE9F4
:10060000F04F88460446D21D22F0070191B0D1E98F
:100610000001CDE90A0100F0B1FE02460B98C00FBF
:1006200001D02D2007E02068810701D52B2002E0B2
:10063000202101EAC000032A099001D0072A05DB26
:1006400003464146204600F079F90BE12078800608
:1006500001D5E06900E00620B8F1650F814606D0BB
:10066000B8F1660F18D0B8F1670F70D131E00020F3
:10067000B9F1110F009001DB112301E009F1010331
:100680000AAA01A90CA8FFF7E2FEDDE90C7000261A
:1006900009F10105834647E001204B4600904FF0E9
:1006A00000470AAA01A90CA8FFF7D1FEDDE90DB0A9
:1006B0000C995D46002610B909F101000D18B9EB3F
:1006C000050003D4C0F1FF3609F10105A5EB0900CF
:1006D0002BE0B9F1010F01DA4FF001090020B9F167
:1006E000110F0090484601DD112300E003460AAADD
:1006F00001A90CA8FFF7ABFEDDE90C704D46002602
:100700008346207800070AD4AB4500DA5D4601A88D
:10071000012D04DD411911F8011C302907D04F4586
:1007200002DA17F1040F04DA012082460FE06D1E91
:10073000EEE7002F02DCED1B3E4403E0781CA842EC
:1007400000DD7D1CB81B00F1010A4FF00047207846
:10075000000703D4AA4501DB4FF0FF3A0021B7F1AF
:10076000004F0DF143088DF8431024D002202B23B5
:10077000002F01DA7F422D230A21021EA0F1010081
:1007800000DC5FB197FBF1FC97FBF1F201FB1C7CF5
:1007900017460CF1300C08F801CDEEE7A8F1010086
:1007A00003702188090501D5452100E06521A0F1EC
:1007B000010800F8011C09980FA9A1EB0807FF1D0B
:1007C00000B10120411901EBEA70A1693844081A0F
:1007D000401EA0612078C00602D42046FFF75CFDD1
:1007E000099828B1D4E901219047206A401C206271
:1007F0002078C00622D52046FFF74EFD1EE0002ED1
:1008000004DBB34502DD01A8805D00E03020D4E9BF
:1008100001219047206A401C2062761CAAF1010049
:100820005FEA000A0AD100F03FF8C0680168405C46
:10083000D4E901219047206A401C2062281EA5F1BE
:100840000105DCDC07E0D4E9012118F8010B904731
:10085000206A401C2062381EA7F10107F3DC204605
:10086000FFF730FD032011B041E6000001694A1C8A
:1008700002610878704700B58FB0CDE901310021E1
:10088000059105497944CDE9031011466846FFF703
:100890002AFD0FB000BD0000E5FFFFFF0A6802F867
:1008A000010B0A60704700000048704730000020CC
:1008B00030B5B0F10A024FEA900E71F100034EEA32
:1008C000817EB0EB0E0061EB91014FEA101E4EEA03
:1008D000017E10EB0E0041EB11114FEA102E4EEA93
:1008E000016E10EB0E0041EB11214FEA104E4EEA63
:1008F000014E10EB0E0041EB1141401841F1000197
:100900004FEAD00040EA41704FEAD10110EB800578
:100910004FEA810444EA907444EB01046D1944EBFE
:100920000404521BA3414FF0000348BF0A3200D514
:1009300030BD401C41F1000130BD00002DE9F04107
:100940001F46044603260168072A01F4006004DB01
:1009500008B116A505E016A503E008B115A500E04D
:1009600015A521F010002060A069C01EA0610FB184
:10097000401EA0612046FFF78FFC4FB1D4E9012152
:1009800038469047206A401C2062C01C206206E066
:10099000206AFAE7D4E9012115F8010B9047761E89
:1009A000F8D22046FFF78EFCBDE8F0814E414E00A4
:1009B0006E616E00494E4600696E66002DE9F04793
:1009C000814616468AB0354878440DC88DE80D003A
:1009D00032487844801C03AC0DC884E80D0041F611
:1009E0009B300844372190FBF1F290FBF1F5A5F123
:1009F000800501FB12041B3C02D56442012000E08B
:100A00000020DFF898A080460027FA44AAF1BE0A29
:100A10000EE0E0070AD03246684607EB47010123A3
:100A20000AEB810100F046FB8DE8070064107F1C93
:100A3000002CEED1194F7F44AE3F19E0E80715D0E6
:100A400007EB04100DF1180A90E80E008AE80E007A
:100A5000C068F04201D1981908903246012306A9D6
:100A600003A800F027FB03AB83E807006D10641CAC
:100A7000002DE3D14FF0010332466946B8F1000F73
:100A800003A802D000F001FB01E000F013FBC9E96C
:100A90000001C9F808200AB0BDE8F087F015000091
:100AA00000487047100000207546FFF7F9FFAE467A
:100AB00005006946534620F00700854618B020B56A
:100AC000FFF7C4FBBDE820404FF000064FF00007E1
:100AD0004FF000084FF0000B21F00701AC46ACE8E6
:100AE000C009ACE8C009ACE8C009ACE8C0098D4653
:100AF000704710B50446AFF300802046BDE81040B3
:100B0000FFF790BB4FF0013C50F8042B51F8043B29
:100B10009A4221D1A2EB0C03934313EACC1317D1D1
:100B200050F8042B51F8043B9A4215D1A2EB0C0368
:100B3000934313EACC130BD150F8042B51F8043B28
:100B40009A4209D1A2EB0C03934313EACC13DBD0F6
:100B50004FF00000704700BFD01A01BAB1FA81F11E
:100B600001F0180122FA01F0CB40C1F12001DBB203
:100B7000C0B2C01A2CFA01F3D11A914311EAC31181
:100B8000E6D1704701491820ABBEFEE726000200FF
:100B900070475FEA400C08BF91F0000F4FEA8C23CA
:100BA0004FEAC12243EA51514FEA1C5018BF00F5E9
:100BB000F0404FEA300018BF41F000415FEA6C5C42
:100BC00000F02980BCF1FF3F08BF40F08040704733
:100BD000130C06BF12044FF0100C4FF0000C130E54
:100BE00004BF12020CF1080C130F04BF12010CF128
:100BF000040C930F04BF92000CF1020CD30F04BF3E
:100C000052000CF1010C11464FF00002A0F11F0040
:100C1000A0EB0C00704711F0004F08BF704731F097
:100C200000413FF4D5AF0B0C06BF09044FF0100C88
:100C30004FF0000C0B0E04BF09020CF1080C0B0F57
:100C400004BF09010CF1040C8B0F04BF89000CF1E7
:100C5000020CCB0F04BF49000CF1010CCCF12003B6
:100C6000A0EB0C0022FA03F302FA0CF241EA0301B2
:100C700000F10100704720F07F4C80EA030023F070
:100C80007F47ACEB070303F57C5300F0004003F112
:100C9000FF032DE980494FEA154B09B44FEA14438D
:100CA00025EA0B4E24EA03480FF2042606EB13272D
:100CB00049083E785FEA320203FB0667C7F5000782
:100CC00007FB06F64FEA54374FEAD64606F102060E
:100CD00007FB066CCCF1005C4FEA1C472CEA074C82
:100CE00007FB06F40CFB06F504EB15464FEA9616D7
:100CF00034BF00204FF000404FEAD13706FB07FC1D
:100D00004FEA1C4C0CFB0BF7D21B03FB0CF761EBFF
:100D100007010CFB0EF7B0EB074072EB17420CFB20
:100D200008F734BFA2EB0742B2EB074261EB174171
:100D30004FEA0C444FEA910706FB07FC4FEA1C4CB4
:100D40000CFB0BF7B0EBC74072EB573203FB0CF711
:100D500034BFA2EBC742B2EBC74261EB57310CFB89
:100D60000EF7B0EBC70072EB57720CFB08F734BFFD
:100D7000A2EBC702B2EBC70261EB5771039F4FEAC8
:100D8000816141EA921104EBCC044FEAD1374FEA7A
:100D9000826206FB07FC42EA90124FEA80604FEA4B
:100DA0001C4C0CFB0BF7D21B03FB0CF761EB070190
:100DB0000CFB0EF7B0EB074072EB17420CFB08F789
:100DC00034BFA2EB0742B2EB074261EB17414FEA97
:100DD0008C554FEA910704EB9C2406FB07FC4FEA75
:100DE0001C4C0CFB0BF7B0EBC74072EB573203FB0C
:100DF0000CF734BFA2EBC742B2EBC74261EB5731ED
:100E00000CFB0EF7B0EBC70072EB57720CFB08F748
:100E100034BFA2EBC702B2EBC70261EB577115EB0F
:100E20004C254FEA816141EA92114FEA82624FEA12
:100E3000D13742EA901206FB07FC44F100044FEA66
:100E400080604FEA1C4C0CFB0BF7D21B03FB0CF72A
:100E500061EB07010CFB0EF7B0EB074072EB17429A
:100E60000CFB08F734BFA2EB0742B2EB074261EB81
:100E7000174115EB1C154FEA813141EA92414FEAC7
:100E8000823242EA90424FEA80304FEA0C7644F1D7
:100E9000000448EA03434EEA0B484FF0000EB2EB61
:100EA000080C71EB030724BF624639464EEB0E0E69
:100EB0004FF0000B0018524149414BEB0B0BB2EBCA
:100EC000080C71EB03077BF1000B24BF6246394627
:100ED0004EEB0E0E4FF0000B0018524149414BEB08
:100EE0000B0BB2EB080C71EB03077BF1000B24BF7B
:100EF000624639464EEB0E0E51EA020718BF46F025
:100F0000010616EB0E7655F1000254F1000103D5EF
:100F1000BDE88901BDE80088BDE88901BDE8004859
:100F2000B619524141EB0101A3F1010370478080E2
:100F30007F7E7D7C7B7A7978777676757473727133
:100F400071706F6E6E6D6C6C6B6A6A6968686766EB
:100F500066656464636362616160605F5F5E5E5D7D
:100F60005D5C5C5B5B5A5A595958585757565655F1
:100F700055555454535352525251515050504F4F53
:100F80004F4E4E4D4D4D4C4C4C4B4B4B4A4A4A49A3
:100F900049494848484747474746464645454544E6
:100FA0004444444343434342424242414141002B73
:100FB0009C4630D477002BD01CB54FEA370703B4DA
:100FC0004FF010004FF01001BAF1000F06D0BCF145
:100FD000000FDCBF40F0080040F008014FF00000B7
:100FE0000FBCBDE810400BF1010BBBF1010F08BFB6
:100FF0005FEA170722BF12F1010211F101014FF060
:10100000004143F1000300F0004043EA0000704754
:10101000F9D35708D0E746EA064613F1400F4FEAE6
:1010200016461FDD13F1200FDFBF16430A460021CD
:1010300020335B42BED0C3F1200746EA064602FADF
:1010400007F74FEA164646EA0706C3F1200722FAD9
:1010500003F201FA07F721FA03F14FF0000342EA25
:101060000702A7E746EA020646EA06464FEA1646A0
:1010700046EA0106BCBF46EA0646360C4FF00003BE
:101080004FF000024FF0000194E72DE9804C9A46A2
:10109000934670B491E8380007C831EA400C48BF65
:1010A00034EA430C03D5FFF7E6FDFFF780FFF0BC01
:1010B000BDE8008C2DE9804C9A46934670B491E8C7
:1010C000380007C810F0804F08BF13F0804F03D1DD
:1010D00000F005F8FFF76BFFF0BCBDE8008C20F0D6
:1010E0007F4780EA030023F07F4C07EB0C03A3F556
:1010F0007C5300F00040A3F1FE0392F0000F00F0DB
:10110000B38095F0000F00F077802DE901494FEA98
:1011100011404FEA144621EA004800FB06FC24EA8D
:10112000064708FB06F607FB08F800FB07F718EB75
:1011300006484CEB164C4FEA124B18EB07484FEAA7
:1011400015464CEB174022EA0B4E0BFB06FC25EA3A
:1011500006470EFB06F607FB0EFE0BFB07F71EEB22
:10116000064E4CEB164C4FF000061EEB074E4CEBB8
:10117000174B18EB0B0840F1000018EB0E0B58EB67
:10118000000840F100008F1A4FF000013CBFC94336
:10119000661B14BFB5EB040C00213CBFC943F61B12
:1011A0004FEA17444EEA8E0E27EA04454FEA1C47E1
:1011B00004FB07622CEA074C05FB07F70CFB05F65E
:1011C00004FB0CFC16EB074642EB174216EB0C46F1
:1011D00042EB1C421BEB060658EB0202414146EA79
:1011E0009E0601D5BDE80189B619524141EB0101C6
:1011F000A3F10103BDE801894FEA14454FEA114705
:1012000024EA054621EA074C05FB07F406FB07F72D
:101210000CFB06F105FB0CFC11EB074144EB1744FA
:101220004FEA124711EB0C4144EB1C4422EA074CF5
:1012300005FB07F206FB07F70CFB06F605FB0CFCAB
:1012400016EB074642EB174216EB0C4642EB1C45E9
:101250006A1854F1000148BF7047B619524141EB7A
:101260000101A3F10103704795F0000F37D04FEA59
:1012700011424FEA144721EA024624EA074C02FBD6
:1012800007F106FB07F70CFB06F402FB0CFC14EB62
:10129000074441EB17414FEA154714EB0C4441EB6F
:1012A0001C4125EA074C02FB07F506FB07F70CFB80
:1012B00006F602FB0CFC16EB074645EB174516EB52
:1012C0000C4645EB1C42121951F1000148BF704712
:1012D000B619524141EB0101A3F1010370474FEAF6
:1012E00014454FEA114724EA054621EA074C05FB5D
:1012F00007F106FB07F70CFB06F24FF0000605FBB3
:101300000CFC12EB074241EB174112EB0C4251EB84
:101310001C4148BF7047921841EB0101A3F1010342
:10132000704700000F48006840F001000D49086058
:1013300000BF0C48006800F002000028F9D00948FE
:101340000830006820F003000649083108600846AC
:10135000006820F0605008600846006820F04040B7
:1013600008607047003802400348006840F470008D
:10137000014908607047000088ED00E003B401985F
:101380004100009850EAC12018BF04204A0D18BF40
:1013900040F0010040F2FF72B2EB515F08BF40F035
:1013A0000200012808BF052002B0704730380A2823
:1013B00001D2012070470020704707E0002100E0C3
:1013C000491C40F67B429142FADB401E0028F5DCC6
:1013D00070472DE9F04103461846D91703EB117108
:1013E000C1F30714D91703EB11710911A3EB011114
:1013F000CDB2204600F064F806460120A84087B22E
:101400003069384008B1012000E0002080464046A5
:10141000BDE8F0812DE9F04103460C461846D91786
:1014200003EB1171C1F30715D91703EB1171091102
:10143000A3EB0111CEB2284600F042F80746012086
:1014400000FA06F80CB1404601E04FEA0840B861E6
:10145000BDE8F08102460021002008E0074B5B5CFC
:10146000934202D1064B585C05E04B1CD9B2034BAA
:101470005B5C002BF2D100BF70470000321F0008F8
:10148000391F0008F0B504460E46154600272046D1
:10149000202803DB7F2801DC012100E0002109B1C5
:1014A000204602E02046FFF7D5FF0746681C20B122
:1014B000AE4202D107F1800000E03846C0B2F0BD74
:1014C0000146082911D2DFE801F00406080A0C10D1
:1014D000100E074809E0074807E0074805E00748FD
:1014E00003E0074801E0074800BF00BF7047000065
:1014F000000002400004024000080240000C0240CC
:1015000000100240001C02402DED028BFFF70AFF85
:1015100000F042F800F02CF911E000F014F910EEA0
:10152000104A204600F088FC41EC180B53EC182BB5
:1015300003A10548FEF79CFE034800F007F8ECE71E
:1015400025372E3166B04300000000207EB50446EA
:1015500000250EA207CA8DE807002146684600F064
:101560009BF80EE014F8016B2E2E09D0C22E07D086
:101570001DF905202946304600F05CF9681CC5B20B
:1015800000BF20780028EDD17EBD0000FFFFFFFFE7
:10159000FFFFFFFFFFFF000000B500F091F8002201
:1015A0000121032000F024F8FF21012000F00DF8B4
:1015B0000F21022000F009F80721032000F005F8B0
:1015C0000121042000F001F800BD30B505460C46AD
:1015D00000210320FFF71EFF284600F09CF820465C
:1015E00000F099F801210320FFF714FF30BD00003F
:1015F0002DE9F04104460F4616462046E11704EB5C
:101600001171C1F30718E11704EB11710911A4EB73
:101610000111CDB24046FFF753FF03461D48006855
:10162000012101FA08F108431A49086018686A00A4
:1016300003219140884318601868690007FA01F196
:1016400008431860012E05D159680120A8400143C4
:10165000596005E026B959680120A84081435960C6
:10166000D8686A00032191408843D860D8686A002E
:10167000002191400843D86098686A000321914096
:101680008843986098686A000321914008439860F5
:10169000BDE8F0813038024030B50346002000221A
:1016A0000AE08C5C2E2C03D1441E65B21D5501E06E
:1016B000441CE0B2541CE2B28C5C002CF1D130BD71
:1016C00000B5002201211046FFF792FF0022012100
:1016D0000846FFF78DFF002211460220FFF788FF22
:1016E00000BD30B50025002411E000210846FFF7B9
:1016F00091FE0220FFF76DFEC4F1070188402844E7
:10170000C5B201210020FFF785FE601CC4B2082C81
:10171000EBDB284630BD30B50546002410E0002143
:101720000846FFF777FE05FA04F0C0F3C011012068
:10173000FFF770FE01210020FFF76CFE601CC4B2B1
:10174000082CECDB30BD08B5022000F02DF88DF838
:101750000100012000F028F88DF800009DF800102D
:101760009DF8012001EB022108B200F02FF808BD1E
:1017700000B5002201210420FFF73AFF00210420D8
:10178000FFF748FE01210420FFF744FE8020FFF709
:10179000C2FF0020FFF7BFFF00210420FFF73AFE41
:1017A0009620FFF70AFE00BD30B504460121042053
:1017B000FFF730FE2046FFF7AEFFFFF792FF05462A
:1017C00000210420FFF726FE284630BD70B52DED20
:1017D0000A8B0446201200EE100AB8EEC00AB0EEE2
:1017E000408A04F0C005E5B1A81100F025F941ECEC
:1017F0001C0B9FED0E0B53EC102B00F035F941EC58
:101800001A0B18EE100A00F017FB41EC1B0B53ECFF
:101810001A2B00F069F841EC190B00F033F808EED0
:10182000100AB0EE480ABDEC0A8B70BD0000000043
:101830000000D03FF0B505460C461646324621461C
:101840002846FFF71FFE074604F12001C8B23946BB
:10185000FFF7BBFEF0BD000010B500290AD00878E4
:10186000002807D005487844FFF74CF9002801D03C
:10187000002010BD0248784410BD00007E07000023
:101880007607000021F00042A2F16052B2F5801FFD
:1018900001F0004328BFD2F17F6C0BD95FEA001C36
:1018A00043EAC20242EB507018BF704728BF20F0D5
:1018B00001007047B2F5801FBCBF184670474FEA61
:1018C000410C1CF5001F02D2084600F02BBB70B57E
:1018D00000F074F900000089FFF7F6BF4FF00040F8
:1018E000A0F580007047000010B591EA030F48BFD3
:1018F00083F0004300F1BE81841A71EB030C05D222
:10190000121943EB0C03001B61EB0C01DFF824E11F
:101910004FEA1154A4EB135C1EEA430F18BF9EEA72
:10192000445F73D023EA0E03DCF1200E21EA045158
:1019300043F4801332D322FA0CFE10EB0E0023FA8C
:101940000CFE41EB0E01CCF1200E03FA0EFE10EB63
:101950000E0051F10001B1F5801FCCF1200E32D202
:1019600001EB045112FA0EF2BDE8104058BF704767
:10197000401C38BF5FEA420218BF7047002814BFFE
:1019800020F0010041F100014FEA410313F5001F6F
:1019900038BF7047A1F1C04100F05EB9012A43EBA6
:1019A0000302ACF1200CDCF11F0E32BF4FF0000E31
:1019B00023FA0CF310EB030041EB0451B4EB115F7D
:1019C000D0D0A1EB045101F5801149085FEA300045
:1019D00001EB04510ED350F1000038BF12FA0EFE95
:1019E00008D1BDE81040C9E7401C38BF5FEA420299
:1019F000CAD1C3E7BDE810404FEA410313F5001F09
:101A000038BF7047A1F1C04100F026B99EEA445F9B
:101A100008D011EA5E0FBDE8104004BF01F000419C
:101A200000207047BDE8104070B500F0C7F800BF57
:101A300064FBBE3E0000E0FF10F0004248BF4042A1
:101A4000B0FA80F310FA03F10AD0C3F11D0303F5D5
:101A500080634FEA415002EB035202EBD121704701
:101A60004FF0000070470000DFF848C170B51CEA75
:101A7000111E1EBF1CEA13159EEA0C0F95EA0C0FEF
:101A800000F06F8081EA030423EA4C134EEAD47E0F
:101A900021EA4C1141F4801143F48013AE44A1FBC0
:101AA000024CA0FB0365AEF17F7E361955EB0C05A9
:101AB000A1FB034C4CF10003A0FB021C16EB0C062F
:101AC000654153F10003094218BF46F0010613F4C3
:101AD000007F0BD14FEA03314FEA0530340341EA6E
:101AE000155140EA16506FF003020AE04FEAC32195
:101AF0004FEAC520F40241EA555140EA56506FF0D2
:101B0000020202EB2E4201EB025585EACE710AD0A9
:101B10005FEA440C18BF24F0004450F1000041F18A
:101B2000000120EAD47040F2FE7C624500D270BD14
:101B3000A84214BF4FF080444FF04044002E08BF2D
:101B40000024BEF1806FA8BFA1F1C041BDE8704084
:101B500080F282804FF0000001F1C04101F00041AD
:101B600070479EEA0C0F0CEA131518BF95EA0C0F8C
:101B700006D04FF0000081EA030E0EF0004170BD68
:101B800000F01CF88900013E00F007B800F009B829
:101B90004FEA430C5FEA5C5C08D081EA030100F085
:101BA0005BB84FEA410C5FEA5C5CF6D14FF0000095
:101BB000014970470000FF070000F87F0EF1020E98
:101BC0002EF0030E5EF8046B364205D4012A43EB77
:101BD000030515F5001F12D8012841EB010C1CF577
:101BE000001F0CD80ED14FEAD17C15F5001F0CEB6D
:101BF0004C0C0CF1020C08BF4CEBD37C04E04FF012
:101C0000080C01E04FEAD37C0CEB4C0526FA05F6F4
:101C100006F00706B6F1040C06D20EEB860CBDE802
:101C200070404CF0010C6047DFE80CF0090B020239
:101C30004FF000414FF00000A1F5002170BD1946A2
:101C40001046012851EB010418BFD4F5001484BFDD
:101C5000002001F0004170BD0808A0F500114FEA16
:101C60003101704710B591EA030F48BF83F000437C
:101C70003FF542AE841A71EB030C07D212198CF0B7
:101C8000004C43EB0C03001B61EB0C01DFF8A4E1FB
:101C90004FEA1154A4EB135C1EEA430F18BF9EEAEF
:101CA000445F00F0B08023EA6E03524221EA0451FF
:101CB000C3EB6E0338BF5B1EDCF1200E25D322FA86
:101CC0000CFE10EB0E0043FA0CFE41EB0E01CCF1C2
:101CD000200E03FA0EFE10EB0E0051F10001CCF1C4
:101CE000200E29D412FA0EF201EB0451BDE8104087
:101CF00058BF7047401C1CBFB2F1004F704700280E
:101D00000CBF491C20F00100704712EB020E43EBA0
:101D1000030218BF4FF0010E4EEA4202ACF1200C54
:101D2000DCF11E0E54D943FA0CFE10EB0E0051F1FB
:101D3000FF31CCF11E0ED5D50EF1010E12FA0EFEBA
:101D4000404141EB010101EB445C5FEA5C5C10D96E
:101D500010EBDE7001EB045138BFBEF1004FBDE85F
:101D6000104018BF704700280CBF491C20F001002C
:101D7000704730D24FEAD42C11F5001124F40064DE
:101D80001BD0B1FA81F20B3AA41AA41ED2F120039F
:101D9000914030FA03F31943904001EBCC71002CD1
:101DA00001EB0451BDE81040A8BF704701F1C041EC
:101DB0004FF0000001F000417047B0FA80F310FAD4
:101DC00003F100D110BDE41A173C4805C90AE4E745
:101DD00001EB045110BD491001EB0451BDE8104066
:101DE0004FEA300002E04FF0000170474A0008BFA0
:101DF0000042F8D0B2F5001F28BF704701F0004143
:101E00004FF0000070479EEA445F07D011EA5E0F72
:101E1000BDE8104004BF002100207047BDE810401D
:101E200070B5FFF7CBFE00BF40DFF63E83F0004108
:101E3000104670470000E0FF43004FEAD30C4FEA22
:101E40003C0C43401FBF40070CF1605113F0FE4FA4
:101E500070471CF0006F03D100200CF00041704768
:101E60000CF0004343EA507010B540EACC0000F09B
:101E70000EF800BF000000924FEA0001FFF7ECBE31
:101E80004FF000414FF00000A1F5002170470EF126
:101E9000020E2EF0030E5EF8044B244204D44FEAE7
:101EA0004102B2F17F4F11D84FEA4003B3F17F4FA7
:101EB0000CD80ED14FEAD07CB2F17F4F0CEB4C0C1A
:101EC0000CF1020C08BF4CEBD17C04E04FF0080C85
:101ED00001E04FEAD17C0CEB4C0324FA03F404F04C
:101EE0000704B4F1040C06D20EEB840CBDE81040DC
:101EF0004CF0010C6047DFE80CF0070802024FF0DD
:101F00000040A0F5800010BD0846420018BFD2F185
:101F1000807288BF00F0004010BD4FF04070E1EECD
:101F2000100A7047FF2141EAD050C0057047FEF704
:101F300066BBA3A580B0B5B10018191A1B1C1D0003
:101F400002400000000000A000000000054000006A
:101F5000000000C8000000000C4000000000409C91
:101F600000000000194000000020BCBE000000007E
:101F700034400000BFC91B8E00000004B5400000C3
:101F8000504BCFD06607E2CF010000006C4100004B
:101F90003E8251AADFEEA73401000000D9420000C2
:101FA000DCB5A0E23A301F97FFFFFFFFB445000009
:101FB000FD25A0C8E9A3C14FFFFFFFFFFF3F0000C1
:101FC0000000008000000000FF3F000000000080D3
:101FD0000000000000200008000000207006000043
:101FE000D00100081C00000043000000F8FFFFFFC4
:101FF0000C0000000E0000000F0000002E0000008A
:040000050800019559
:00000001FF
