:020000040800F2
:1000000098060020E1020008E9020008EB0200085F
:10001000ED020008EF020008F102000800000000F5
:10002000000000000000000000000000F3020008D3
:10003000F502000800000000F7020008F9020008BD
:10004000FB020008FB020008FB020008FB0200089C
:10005000FB020008FB020008FB020008FB0200088C
:10006000FB020008FB020008FB020008FB0200087C
:10007000FB020008FB020008FB020008FB0200086C
:10008000FB020008FB020008FB0200080000000061
:10009000000000000000000000000000FB0200085B
:1000A000FB020008FB020008FB020008FB0200083C
:1000B000FB020008FB020008FB020008FB0200082C
:1000C000FB020008FB020008FB020008FB0200081C
:1000D000FB020008FB020008FB0200080000000011
:1000E000FB020008FB020008FB0200080000000001
:1000F000000000000000000000000000FB020008FB
:1001000000000000FB020008FB020008FB020008E0
:1001100000000000000000000000000000000000DF
:10012000FB020008FB020008FB020008FB020008BB
:10013000FB020008000000000000000000000000BA
:10014000000000000000000000000000FB020008AA
:10015000FB020008FB020008FB020008FB0200088B
:10016000FB020008FB020008000000000000000085
:10017000000000000000000000000000000000007F
:1001800000000000FB02000800000000000000006A
:10019000FB02000800F002F800F092F80AA090E8D4
:1001A000000C82448344AAF10107DA4501D100F032
:1001B00087F8AFF2090EBAE80F0013F0010F18BF6D
:1001C000FB1A43F001031847703000009030000024
:1001D000103A24BF78C878C1FAD8520724BF30C873
:1001E00030C144BF04680C60704700000023002445
:1001F00000250026103A28BF78C1FBD8520728BF37
:1002000030C148BF0B6070476E2900F03D817029F6
:1002100000F07F82662902F0E280652902F0DF802B
:10022000672902F0DC80612902F0DB8003681B0A89
:1002300028BF41F08001692900F0EA80642900F0BC
:10024000E780752900F0E4806F2900F00C8278299E
:1002500000F04B82E92900F0A781E42900F0A48195
:10026000F52900F0A181EF2900F00982F82900F0BA
:100270004A820368DB0928BF41F08001632900F04E
:100280004D87732900F05287E32900F05D87F32939
:1002900000F06287002070471FB502F09BF800F065
:1002A000ADFF04000020002102F07EF8401C6060D9
:1002B0000020002102F062F8E0601FBD10B510BD03
:1002C00000F06EFF1146FFF7E7FF01F00FFF01F0AE
:1002D0004BF803B4FFF7F2FF03BC01F093F8000002
:1002E0000948804709480047FEE7FEE7FEE7FEE7CA
:1002F000FEE7FEE7FEE7FEE7FEE7FEE70448054906
:10030000054A064B70470000E91B000895010008EC
:1003100098000020980600209802002098020020F3
:100320001CB50C46064B7B4469460090204600F005
:10033000C4F804460020694600F0D2F820461CBDEF
:10034000B701000070477047704770B50446856973
:100350000068C10601D5302600E02026C00707D07E
:1003600070BDD4E9012130469047206A401C2062CC
:100370006D1EF6D570BD70B5044685690078C0075E
:1003800007D170BDD4E9012120209047206A401C8C
:1003900020626D1EF6D570BD09684A0501D540B2D0
:1003A0007047C905FCD500B2704709684A0501D5F8
:1003B000C0B27047C905FCD580B2704770B50C4615
:1003C0000546012A05D02878800600D5EA69002371
:1003D00002E0012305E05B1C934202D2E05C0028AE
:1003E000F9D1A869E618C01AA861286A18442862D9
:1003F0002846FFF7AAFF04E0D5E9012114F8010B14
:100400009047B442F8D32846FFF7B5FF70BD00000F
:100410002DE9F0410646002410687529314616A5DD
:1004200010D0FFF7B9FF002802DA404213A507E019
:1004300031688A0701D512A502E0490704D511A544
:10044000012401E0FFF7B1FF00210A2206F1240791
:1004500009E0B0FBF2FCB0FBF2F302FB1C00303011
:1004600078541846491C0028F3D123462A463046C2
:10047000BDE8F04100F061BA000000002D0000006E
:100480002B0000002000000011680268006A53057C
:1004900001D508700AE0D30501D5088006E01306EF
:1004A00003D5C217C1E9000200E0086001207047CF
:1004B00001694A1C02610878704700B58FB0CDE928
:1004C00001310021059105497944CDE90310114618
:1004D000684600F029F90FB000BD0000E5FFFFFFFE
:1004E0000A6802F8010B0A60704700002DE9FF5FFF
:1004F00015468A460446DFF8AC80F8440027D8E960
:1005000000103E46CDE9001010E03AF816106A4699
:1005100002A800F025FE411C07D02178890603D5EA
:10052000E269391891420DD80744761C207880067C
:1005300002D5E069B84205DDAE42E6DB3AF81600C6
:100540000028E2D1A069C01BA0612046FFF7FDFE94
:10055000D8E90010CDE90010002017E03AF8181093
:100560006A4602A800F0FCFDB0F1FF3F81460BD0C7
:1005700000250DF1080B05E0D4E901211BF8050069
:1005800090476D1C4D45F7D308F10100B0428046FD
:10059000E4DB206A384420622046FFF7ECFEBDE829
:1005A000FF9F00003E2C00002DE9F0418046D21D47
:1005B00022F007020025D2E90002F52915A614D081
:1005C000011E72F1000106DA0023D0EB030063EB99
:1005D000020211A608E0D8F800108B0701D50FA67B
:1005E00002E0490701D50EA601251146002408F1B5
:1005F000240704E000F05CF930323A55641C50EAFC
:100600000102F7D12B46324621464046BDE8F04173
:1006100000F093B9000000002D0000002B00000046
:100620002000000030B4002100F1240408E002F0B2
:100630000705D208303542EA4372DB086554491C8D
:1006400052EA0305F3D10468002310A2250707D559
:10065000A40600D421B1C46901230DA2641EC461A3
:1006600030BC00F06AB910B5044621461068FFF7A7
:100670009CFE02462046BDE810400023D2E7D21D72
:1006800022F00701D1E90023CCE7000000000000C0
:1006900030000000F0B40D460188090502D5214C58
:1006A0007C4402E01F4C7C440E34002100F12406FF
:1006B00008E002F00F071209E75D42EA03721B0926
:1006C0007754491C52EA0307F3D10278002312073A
:1006D00004D5702D06D009B1022311342246F0BC96
:1006E00000F02BB901231034F8E770B504460D462D
:1006F00021461068FFF759FE024629462046BDE80C
:1007000070400023C6E7D21D22F00703D3E900237F
:10071000C0E70368126843F0200303600823C36145
:100720000023B7E7A02A00002DE9F05F89460446C0
:100730004FF0000ADFF874B1FB44C0F820A0204657
:10074000E1688847002874D0252806D0D4E9012123
:100750009047206A401C2062F1E700265F46204651
:10076000E16888472028054607DB312D05D2781936
:1007700010F8200C08B10643F1E7B00701D526F0C8
:100780000406C4F81CA00027C4F818A02A2D09D01C
:10079000284601F04BFA38B304EB8708303DC8F81F
:1007A000185019E059F8041B204604EB87029161A8
:1007B000E1688847012F054618D1E069002820DA52
:1007C00026F020061DE0D8F8180000EB800005EBAD
:1007D00040003038C8F818002046E16888470546D0
:1007E00001F024FA0028EED1012F0AD02E2D08D1D5
:1007F0002046E16888477F1C0546022F46F0200608
:10080000C4DBA069002803DA404246F00106A0617B
:10081000F00701D026F010066C2D0BD0682D09D002
:100820004C2D39D06A2D35D0742D35D07A2D33D05A
:1008300016E038E0E1682F4620468847B842054672
:1008400009D16C2F26D04FF48060E1680643204622
:100850008847054604E06C2F1AD04FF48070064399
:100860000DB3A5F14100192802D8203546F40066E1
:100870004A462946204626604E46FFF7C5FC80B111
:1008800001280BD0F61D26F0070000F1080956E7F5
:100890004020E4E78020D8E70020D6E706F10409ED
:1008A0004DE7284652E7206ABDE8F09F302A000055
:1008B00030B5B0F10A024FEA900E71F100034EEA32
:1008C000817EB0EB0E0061EB91014FEA101E4EEA03
:1008D000017E10EB0E0041EB11114FEA102E4EEA93
:1008E000016E10EB0E0041EB11214FEA104E4EEA63
:1008F000014E10EB0E0041EB1141401841F1000197
:100900004FEAD00040EA41704FEAD10110EB800578
:100910004FEA810444EA907444EB01046D1944EBFE
:100920000404521BA3414FF0000348BF0A3200D514
:1009300030BD401C41F1000130BD2DE9F0470D46AE
:1009400099469246044600F124080168880604D5B9
:10095000E06921F01001216000E00120A84201DDE2
:10096000471B00E00027A1697A1902EB0900081A69
:10097000A0612078C00602D42046FFF7E6FC0026DE
:1009800008E0D4E901211AF806009047206A401CCB
:10099000761C20624E45F4DB2078C0060AD520463E
:1009A000FFF7D3FC06E0D4E9012130209047206A0C
:1009B000401C2062381EA7F10107F4DC07E0D4E9EF
:1009C000012118F805009047206A401C2062281E6B
:1009D000A5F10105F3DC2046FFF7CDFC20780006E9
:1009E00002D50220BDE8F0870120FBE770472DE922
:1009F000FF4F0C461E464FF0FF378BB0D2E9000187
:100A0000DDF860800A908A46C1F30A5505B93D4673
:100A1000002108464FF00000BAF1000F00F440003A
:100A200005DA00EB80004FF4400101EA50004FEA84
:100A30009059B9F1010F00DDB9460A9850EA4A0011
:100A40000ED044F61050A5F2FF3545432F14B8F1EF
:100A5000000F1ED07542291E1EDDC9F100021CE0E8
:100A6000B8F1010F4FF0000001D0302103E0F24354
:100A700005E02154401CB042FBDB3046002200213F
:100A800021540B99C1F80880C1E900200FB0BDE8DE
:100A9000F08FBD1B6D1CDEE74A4600DA694206A8EE
:100AA00000F0F0FB06AB93E8070003AB83E8070018
:100AB00050460A9900F0ADFC8DE80700A0F5005003
:100AC0001F3800900398002D0ADD42F21F014A46AC
:100AD0000844002303A90390684600F016FF09E0CC
:100AE000A0F500504A461F38002303A9039068462A
:100AF00000F020FF8DE807000004000C03D04FF049
:100B0000FF30410800E01046B8F1000F03D000228A
:100B1000009215461EE0751E05D4FFF7C9FE30325F
:100B200062556D1EF9D5B3460122084302D000225A
:100B30007F1C04E02078302801D100227F1E002A8B
:100B4000099784D01DE0112D07DAFFF7B1FE30328E
:100B500062556D1C50EA0102F5D1084302D000989D
:100B6000C8B10EE00021681E05E0235C625C63549E
:100B70002254401E491C8142F7DBAB46A81B401E95
:100B80000990002004F80B000B98099AC0F808801F
:100B9000C0E9002B7AE711264FF0000857E72DE94E
:100BA000F04F88460446D21D22F0070191B0D1E9EA
:100BB0000001CDE90A0101F021F802460B98C00FAF
:100BC00001D02D2007E02068810701D52B2002E00D
:100BD000202101EAC000032A099001D0072A05DB81
:100BE00003464146204600F00DFB0BE120788006CD
:100BF00001D5E06900E00620B8F1650F814606D016
:100C0000B8F1660F18D0B8F1670F70D131E000204D
:100C1000B9F1110F009001DB112301E009F101038B
:100C20000AAA01A90CA8FFF7E2FEDDE90C70002674
:100C300009F10105834647E001204B4600904FF043
:100C400000470AAA01A90CA8FFF7D1FEDDE90DB003
:100C50000C995D46002610B909F101000D18B9EB99
:100C6000050003D4C0F1FF3609F10105A5EB090029
:100C70002BE0B9F1010F01DA4FF001090020B9F1C1
:100C8000110F0090484601DD112300E003460AAA37
:100C900001A90CA8FFF7ABFEDDE90C704D4600265C
:100CA0008346207800070AD4AB4500DA5D4601A8E8
:100CB000012D04DD411911F8011C302907D04F45E1
:100CC00002DA17F1040F04DA012082460FE06D1EEC
:100CD000EEE7002F02DCED1B3E4403E0781CA84247
:100CE00000DD7D1CB81B00F1010A4FF000472078A1
:100CF000000703D4AA4501DB4FF0FF3A0021B7F10A
:100D0000004F0DF143088DF8431024D002202B230F
:100D1000002F01DA7F422D230A21021EA0F10100DB
:100D200000DC5FB197FBF1FC97FBF1F201FB1C7C4F
:100D300017460CF1300C08F801CDEEE7A8F10100E0
:100D400003702188090501D5452100E06521A0F146
:100D5000010800F8011C09980FA9A1EB0807FF1D65
:100D600000B10120411901EBEA70A1693844081A69
:100D7000401EA0612078C00602D42046FFF7E5FAA5
:100D8000099828B1D4E901219047206A401C2062CB
:100D90002078C00622D52046FFF7D7FA1EE0002EA5
:100DA00004DBB34502DD01A8805D00E03020D4E91A
:100DB00001219047206A401C2062761CAAF10100A4
:100DC0005FEA000A0AD100F019FAC0680168405CC5
:100DD000D4E901219047206A401C2062281EA5F119
:100DE0000105DCDC07E0D4E9012118F8010B90478C
:100DF000206A401C2062381EA7F10107F3DC204660
:100E0000FFF7B9FA032011B041E600002DE9F04FD9
:100E100004460D46D21D22F0070089B0D0E90097A4
:100E20004846394600F0EAFE0246F80F01D02D236D
:100E300007E02068810701D52B2302E0202101EA89
:100E4000C0038DF820300BB1012000E00020032A00
:100E5000824601D0072A04DB2946204600F0D2F959
:100E60003FE12078800601D40D2500E0E569C7F355
:100E70000A560D2D49DA00214FEA175B08464FF05C
:100E80000000002F00F4400007DA00EB80004FF470
:100E9000400100EBD07001EA60008115012901DDFD
:100EA0004FF0FF3100224FEA850CBCF1180F06D33A
:100EB0001346ACF118004FF08052C24003E04FF4EB
:100EC000801323FA0CF30CF10C0CBCF1200F04D3AB
:100ED000ACF1200C09FA0CF001E007FA0CF0002943
:100EE0004FF0004801DD18B90FE00ED140450CD39A
:100EF00019EB02095F4121B9404502D19F4329EA1C
:100F00000209BBEB175F00D0761C2088000502D5D4
:100F10007B48784402E07A487844193808AA30239C
:100F200002F80A30037C0AF10101002E0AF1020ADC
:100F300053546A4602DC4FF0300101E04FF03101BA
:100F40004FF001088DF8001002D0A6F2FF3603E042
:100F500059EA470100D06B4E002D02DC21780907C9
:100F600004D54FF002082E218DF80110C44600214F
:100F70000BE0C7F303433F01C35C491C6D1E02F83D
:100F80000830052908F1010801DA002DF1DC002103
:100F90000CE000EB1973491C1B786D1E082902F840
:100FA00008304FEA091908F1010801DA002DF0DCD8
:100FB00021688B0602D516E0A8F10108E04505DDA1
:100FC00002EB080313F8013C302BF5D0B8F1000F09
:100FD00009DD02EB080313F8013C2E2B03D10907AE
:100FE00001D4A8F10108002D05DD3E2102F808100A
:100FF0006D1E08F10108407C002E02F8080008F17F
:10100000010804DA2D20764202F8080002E02B20C5
:1010100002F808000A214FF47A70864208F10108AC
:101020000BDB96FBF0F3303302F8083096FBF0F35D
:1010300008F1010800FB136601E0642E0CDB64205C
:1010400096FBF0F3303302F8083096FBF0F308F12A
:10105000010800FB136601E00A2E06DB96FBF1F0A7
:10106000303002F8080008F1010896FBF1F001FBAE
:101070001060303002F80800A16908F1010808EB9F
:10108000050202EB0A00081AA0612078C00602D40B
:101090002046FFF75AF9216A08AE01EB0A002062E8
:1010A00004E0D4E9012116F8010B9047BAF1010AD6
:1010B000F7D22078C00602D52046FFF746F96E46E3
:1010C00009E016F8010B3E280FD0D4E90121904722
:1010D000206A401C2062B8F10108F2D22046FFF7D6
:1010E0004AF909B00320BDE8F08F206A2844206245
:1010F00003E0D4E90121302090476D1EEBD3F8E7DF
:101100007A22000002FCFFFF10B5436913B1AFF370
:10111000008001E0FFF752F9012010BD127800F1C4
:1011200024010A7000224A700122EDE711684FF095
:10113000FF32E9E710B5436913B1AFF3008001E076
:10114000FFF7D4F9012010BD128800F12401828438
:101150000022C2840122EDE711684FF0FF32E9E777
:1011600070B516460C46054600F040F8036893F843
:101170000101012806D0FF2C0FD8185D68B10120AD
:101180002C7070BDD3F807013246214603F20713D5
:1011900003442846BDE8704018474FF0FF3070BD4B
:1011A000754600F0EBF8AE4605006946534620F060
:1011B0000700854618B020B5FFF7A0F8BDE820402D
:1011C0004FF000064FF000074FF000084FF0000B03
:1011D00021F00701AC46ACE8C009ACE8C009ACE8B6
:1011E000C009ACE8C0098D467047000010B500F09A
:1011F00005F8001D10BD00BFB11100000048704788
:10120000580000202DE9F0411F46044603260168DE
:10121000072A01F4006004DB08B116A505E016A555
:1012200003E008B115A500E015A521F0100020602D
:10123000A069C01EA0610FB1401EA0612046FFF74B
:1012400084F84FB1D4E9012138469047206A401C08
:101250002062C01C206206E0206AFAE7D4E901217E
:1012600015F8010B9047761EF8D22046FFF783F859
:10127000BDE8F0814E414E006E616E00494E460061
:10128000696E66002DE9F047814616468AB03548FA
:1012900078440DC88DE80D0032487844801C03ACBA
:1012A0000DC884E80D0041F69B300844372190FBBF
:1012B000F1F290FBF1F5A5F1800501FB12041B3C56
:1012C00002D56442012000E00020DFF898A08046AB
:1012D0000027FA44AAF1BE0A0EE0E0070AD032461F
:1012E000684607EB470101230AEB810100F022FB6E
:1012F0008DE8070064107F1C002CEED1194F7F444D
:10130000AE3F19E0E80715D007EB04100DF1180AFD
:1013100090E80E008AE80E00C068F04201D19819EA
:1013200008903246012306A903A800F003FB03AB93
:1013300083E807006D10641C002DE3D14FF001031A
:1013400032466946B8F1000F03A802D000F0DDFA7A
:1013500001E000F0EFFAC9E90001C9F808200AB07D
:10136000BDE8F0878C1F000010B50446AFF3008085
:101370002046BDE81040FEF7ACBF000000487047B3
:10138000380000204FF0013C50F8042B51F8043B8A
:101390009A4221D1A2EB0C03934313EACC1317D149
:1013A00050F8042B51F8043B9A4215D1A2EB0C03E0
:1013B000934313EACC130BD150F8042B51F8043BA0
:1013C0009A4209D1A2EB0C03934313EACC13DBD06E
:1013D0004FF00000704700BFD01A01BAB1FA81F196
:1013E00001F0180122FA01F0CB40C1F12001DBB27B
:1013F000C0B2C01A2CFA01F3D11A914311EAC311F9
:10140000E6D1704701491820ABBEFEE72600020076
:1014100070475FEA400C08BF91F0000F4FEA8C2341
:101420004FEAC12243EA51514FEA1C5018BF00F560
:10143000F0404FEA300018BF41F000415FEA6C5CB9
:1014400000F02980BCF1FF3F08BF40F080407047AA
:10145000130C06BF12044FF0100C4FF0000C130ECB
:1014600004BF12020CF1080C130F04BF12010CF19F
:10147000040C930F04BF92000CF1020CD30F04BFB5
:1014800052000CF1010C11464FF00002A0F11F00B8
:10149000A0EB0C00704711F0004F08BF704731F00F
:1014A00000413FF4D5AF0B0C06BF09044FF0100C00
:1014B0004FF0000C0B0E04BF09020CF1080C0B0FCF
:1014C00004BF09010CF1040C8B0F04BF89000CF15F
:1014D000020CCB0F04BF49000CF1010CCCF120032E
:1014E000A0EB0C0022FA03F302FA0CF241EA03012A
:1014F00000F10100704720F07F4C80EA030023F0E8
:101500007F47ACEB070303F57C5300F0004003F189
:10151000FF032DE980494FEA154B09B44FEA144304
:1015200025EA0B4E24EA03480FF2042606EB1327A4
:1015300049083E785FEA320203FB0667C7F50007F9
:1015400007FB06F64FEA54374FEAD64606F1020685
:1015500007FB066CCCF1005C4FEA1C472CEA074CF9
:1015600007FB06F40CFB06F504EB15464FEA96164E
:1015700034BF00204FF000404FEAD13706FB07FC94
:101580004FEA1C4C0CFB0BF7D21B03FB0CF761EB77
:1015900007010CFB0EF7B0EB074072EB17420CFB98
:1015A00008F734BFA2EB0742B2EB074261EB1741E9
:1015B0004FEA0C444FEA910706FB07FC4FEA1C4C2C
:1015C0000CFB0BF7B0EBC74072EB573203FB0CF789
:1015D00034BFA2EBC742B2EBC74261EB57310CFB01
:1015E0000EF7B0EBC70072EB57720CFB08F734BF75
:1015F000A2EBC702B2EBC70261EB5771039F4FEA40
:10160000816141EA921104EBCC044FEAD1374FEAF1
:10161000826206FB07FC42EA90124FEA80604FEAC2
:101620001C4C0CFB0BF7D21B03FB0CF761EB070107
:101630000CFB0EF7B0EB074072EB17420CFB08F700
:1016400034BFA2EB0742B2EB074261EB17414FEA0E
:101650008C554FEA910704EB9C2406FB07FC4FEAEC
:101660001C4C0CFB0BF7B0EBC74072EB573203FB83
:101670000CF734BFA2EBC742B2EBC74261EB573164
:101680000CFB0EF7B0EBC70072EB57720CFB08F7C0
:1016900034BFA2EBC702B2EBC70261EB577115EB87
:1016A0004C254FEA816141EA92114FEA82624FEA8A
:1016B000D13742EA901206FB07FC44F100044FEADE
:1016C00080604FEA1C4C0CFB0BF7D21B03FB0CF7A2
:1016D00061EB07010CFB0EF7B0EB074072EB174212
:1016E0000CFB08F734BFA2EB0742B2EB074261EBF9
:1016F000174115EB1C154FEA813141EA92414FEA3F
:10170000823242EA90424FEA80304FEA0C7644F14E
:10171000000448EA03434EEA0B484FF0000EB2EBD8
:10172000080C71EB030724BF624639464EEB0E0EE0
:101730004FF0000B0018524149414BEB0B0BB2EB41
:10174000080C71EB03077BF1000B24BF624639469E
:101750004EEB0E0E4FF0000B0018524149414BEB7F
:101760000B0BB2EB080C71EB03077BF1000B24BFF2
:10177000624639464EEB0E0E51EA020718BF46F09C
:10178000010616EB0E7655F1000254F1000103D567
:10179000BDE88901BDE80088BDE88901BDE80048D1
:1017A000B619524141EB0101A3F10103704780805A
:1017B0007F7E7D7C7B7A79787776767574737271AB
:1017C00071706F6E6E6D6C6C6B6A6A696868676663
:1017D00066656464636362616160605F5F5E5E5DF5
:1017E0005D5C5C5B5B5A5A59595858575756565569
:1017F00055555454535352525251515050504F4FCB
:101800004F4E4E4D4D4D4C4C4C4B4B4B4A4A4A491A
:10181000494948484847474747464646454545445D
:101820004444444343434342424242414141002BEA
:101830009C4630D477002BD01CB54FEA370703B451
:101840004FF010004FF01001BAF1000F06D0BCF1BC
:10185000000FDCBF40F0080040F008014FF000002E
:101860000FBCBDE810400BF1010BBBF1010F08BF2D
:101870005FEA170722BF12F1010211F101014FF0D7
:10188000004143F1000300F0004043EA00007047CC
:10189000F9D35708D0E746EA064613F1400F4FEA5E
:1018A00016461FDD13F1200FDFBF16430A46002145
:1018B00020335B42BED0C3F1200746EA064602FA57
:1018C00007F74FEA164646EA0706C3F1200722FA51
:1018D00003F201FA07F721FA03F14FF0000342EA9D
:1018E0000702A7E746EA020646EA06464FEA164618
:1018F00046EA0106BCBF46EA0646360C4FF0000336
:101900004FF000024FF0000194E72DE9804C9A4619
:10191000934670B491E8380007C831EA400C48BFDC
:1019200034EA430C03D5FFF7E6FDFFF780FFF0BC78
:10193000BDE8008C2DE9804C9A46934670B491E83E
:10194000380007C810F0804F08BF13F0804F03D154
:1019500000F005F8FFF76BFFF0BCBDE8008C20F04D
:101960007F4780EA030023F07F4C07EB0C03A3F5CD
:101970007C5300F00040A3F1FE0392F0000F00F052
:10198000B38095F0000F00F077802DE901494FEA10
:1019900011404FEA144621EA004800FB06FC24EA05
:1019A000064708FB06F607FB08F800FB07F718EBED
:1019B00006484CEB164C4FEA124B18EB07484FEA1F
:1019C00015464CEB174022EA0B4E0BFB06FC25EAB2
:1019D00006470EFB06F607FB0EFE0BFB07F71EEB9A
:1019E000064E4CEB164C4FF000061EEB074E4CEB30
:1019F000174B18EB0B0840F1000018EB0E0B58EBDF
:101A0000000840F100008F1A4FF000013CBFC943AD
:101A1000661B14BFB5EB040C00213CBFC943F61B89
:101A20004FEA17444EEA8E0E27EA04454FEA1C4758
:101A300004FB07622CEA074C05FB07F70CFB05F6D5
:101A400004FB0CFC16EB074642EB174216EB0C4668
:101A500042EB1C421BEB060658EB0202414146EAF0
:101A60009E0601D5BDE80189B619524141EB01013D
:101A7000A3F10103BDE801894FEA14454FEA11477C
:101A800024EA054621EA074C05FB07F406FB07F7A5
:101A90000CFB06F105FB0CFC11EB074144EB174472
:101AA0004FEA124711EB0C4144EB1C4422EA074C6D
:101AB00005FB07F206FB07F70CFB06F605FB0CFC23
:101AC00016EB074642EB174216EB0C4642EB1C4561
:101AD0006A1854F1000148BF7047B619524141EBF2
:101AE0000101A3F10103704795F0000F37D04FEAD1
:101AF00011424FEA144721EA024624EA074C02FB4E
:101B000007F106FB07F70CFB06F402FB0CFC14EBD9
:101B1000074441EB17414FEA154714EB0C4441EBE6
:101B20001C4125EA074C02FB07F506FB07F70CFBF7
:101B300006F602FB0CFC16EB074645EB174516EBC9
:101B40000C4645EB1C42121951F1000148BF704789
:101B5000B619524141EB0101A3F1010370474FEA6D
:101B600014454FEA114724EA054621EA074C05FBD4
:101B700007F106FB07F70CFB06F24FF0000605FB2A
:101B80000CFC12EB074241EB174112EB0C4251EBFC
:101B90001C4148BF7047921841EB0101A3F10103BA
:101BA000704700000F48006840F001000D490860D0
:101BB00000BF0C48006800F002000028F9D0094876
:101BC0000830006820F00300064908310860084624
:101BD000006820F0605008600846006820F040402F
:101BE00008607047003802400348006840F4700005
:101BF000014908607047000088ED00E003B40198D7
:101C00004100009850EAC12018BF04204A0D18BFB7
:101C100040F0010040F2FF72B2EB515F08BF40F0AC
:101C20000200012808BF052002B0704730380A289A
:101C300001D2012070470020704701464A1001F48C
:101C4000807018B102F07F00A0F1800210B27047DE
:101C500007E0002100E0491C40F67B429142FADB9C
:101C6000401E0028F5DC7047002105E0002200E05E
:101C7000521C072AFCDB491C8142F7DB70472DE927
:101C8000F04103461846D91703EB1171C1F307144D
:101C9000D91703EB11710911A3EB0111CDB2204645
:101CA00000F0D0F806460120A84087B230693840DD
:101CB00008B1012000E0002080464046BDE8F081E8
:101CC0002DE9F04103460C461846D91703EB117174
:101CD000C1F30715D91703EB11710911A3EB01111A
:101CE000CEB2284600F0AEF80746012000FA06F80A
:101CF0000CB1404601E04FEA0840B861BDE8F08110
:101D000010B5044600F0D9FA0821204600F0E9FA9F
:101D100000F0E1FA10BD30B50546284600F01FF886
:101D200004462046FFF789FF30BD70B505460E46D4
:101D300014460020207000F08DFA0A2000F01FF8F1
:101D40002946012000F039F83146022000F035F82C
:101D5000EE20FFF7D5FF204600F042F870BD30B509
:101D60000546002400F0A9FA0821284600F0B9FA37
:101D700000F081FA044600F0AEFA204630BD10B5FE
:101D80000446002C17DD00F098FA08210C2000F022
:101D9000A8FA0821204600F0A4FA3220FFF758FFE5
:101DA00000F099FAAC20FFF7DAFFA04201D1002041
:101DB00010BD0120FCE70220FAE730B505460C46CD
:101DC00000F07BFA0821284600F08BFA6000102111
:101DD00000F087FA1420FFF73BFF00F07CFA30BDDB
:101DE00030B50446AC20FFF7BAFFC5B2207878B909
:101DF000A120FFF790FF6080A220FFF78CFFE0801A
:101E0000C5F380102071C5F34010207201202070AE
:101E1000AA20FFF780FF608130BD10B50346002087
:101E200012B1012A0BD104E041FA03F404F00100DD
:101E300005E001FA03F404F08004E00900BF00BFEC
:101E400010BD00000146082911D2DFE801F00406A8
:101E5000080A0C10100E074809E0074807E0074879
:101E600005E0074803E0074801E0074800BF00BF5E
:101E700070470000000002400004024000080240D9
:101E8000000C024000100240001C024070B50546E4
:101E90000E4600241BE00F480068402804D2285D4D
:101EA000012100F069F80CE00A480068802808D297
:101EB0000849098888B200F035F8285D022100F051
:101EC0005BF804480068401C02490860641CB44286
:101ED000E1DB70BD0800002010B50446012C04D0E1
:101EE000022C0BD0032C1BD111E001210C20FFF799
:101EF000E7FE00210B20FFF7E3FE11E000210C209C
:101F0000FFF7DEFE01210B20FFF7DAFE08E00021DB
:101F10000C20FFF7D5FE00210B20FFF7D1FE00BFFC
:101F200000BF10BD10B504460B480460402C06DA13
:101F300044F04004E0B2012100F010F80AE0802CE7
:101F400008DAA4F1400080B240F04004E0B202217F
:101F500000F004F810BD00000800002030B5054670
:101F60000C462046FFF7B8FF00210846FFF7A8FE01
:101F7000284600F071F830BD30B505460C462046C5
:101F8000FFF7AAFF01210020FFF79AFE284600F084
:101F900063F830BD31B500240DE0E0B2002100F05F
:101FA00073F8002504E001216846FFF76FFF6D1C00
:101FB000802DF8DB641C082CEFDB38BD10B5002247
:101FC0000121104600F0F2F800220121084600F03D
:101FD000EDF8002201210B2000F0E8F80022012199
:101FE0000C2000F0E3F801210B20FFF769FE01212E
:101FF0000C20FFF765FE002407E00949085D002278
:10200000012100F0D3F8601CC4B2082CF5DB0321D9
:102010003F20FFF7A3FF0020FFF7BCFF10BD00002B
:10202000343100080FB470B58AB004460D46164628
:1020300012A8019002A8019A1199FEF771F90020E7
:10204000019002AB32462946204600F02BF80AB038
:1020500070BC5DF814FB000070B5054600240CE070
:10206000012229462046FFF7D8FE06460549085DAD
:102070003146FFF725FE601CC4B2082CF0DB00F0EF
:1020800024F870BD3431000830B504460D460449CB
:10209000085D0321FFF762FF2846FFF743FF30BDCD
:1020A00000000020F0B506460F4615461C4639468E
:1020B0003046FFF7E9FF04E014F8011B284600F062
:1020C00033F920780028F7D1F0BD00B5012108468A
:1020D000FFF7F6FD0120FFF7C7FD00210120FFF704
:1020E000EFFD0120FFF7C0FD00BD000008B5FFF7C0
:1020F00059FDFFF763FF1C4A6FF004010A20FFF748
:1021000014FE1AA301220C210020FFF78BFF1BA352
:10211000002211460220FFF785FF1348B0F90200A4
:1021200019A30022114600900320FFF77BFF0E4801
:10213000B0F9060017A30022114600900420FFF713
:1021400071FF0FE00848FFF74BFE0748B0F90A009F
:1021500013A30022114600900620FFF763FF6420BE
:10216000FFF776FDEEE700002A00002044533136E9
:1021700032302053656E736F7200000054686572D0
:102180006D6F737461743A00486967683A25346901
:10219000B04300004C6F773A253569B0430000002A
:1021A00054656D703A253469B04300002DE9F04163
:1021B00004460F4616462046E11704EB1171C1F3A1
:1021C0000718E11704EB11710911A4EB0111CDB24D
:1021D0004046FFF737FE03461D480068012101FA1B
:1021E00008F108431A49086018686A000321914001
:1021F000884318601868690007FA01F108431860FD
:10220000012E05D159680120A8400143596005E01D
:1022100026B959680120A84081435960D8686A00EE
:10222000032191408843D860D8686A00002191401A
:102230000843D86098686A000321914088439860F9
:1022400098686A000321914008439860BDE8F081D6
:102250003038024000B5002201211020FFF7A6FF10
:10226000002201211120FFF7A1FF002201211220ED
:10227000FFF79CFF00BD30B500250022114610205D
:10228000FFF794FF00240FE000211120FFF718FD55
:102290001020FFF7F4FCA040284405B201211120D2
:1022A000FFF70EFD601CC4B2092CEDDB00220121FA
:1022B0001020FFF77BFF284630BD00B5002112201B
:1022C000FFF7FEFC01211120FFF7FAFC012112208B
:1022D000FFF7F6FC00BD00B500211220FFF7F0FC6F
:1022E00000BD70B505460E46002201211020FFF703
:1022F0005DFF00240FE000211120FFF7E1FC45FA0B
:1023000004F000F001011020FFF7DAFC0121112098
:10231000FFF7D6FC641CB442EDDB0022114610200E
:10232000FFF744FF70BD00002DE9F04105460C4663
:102330002046202803DB7F2801DC012100E000216A
:1023400011B1A4F1200000E06020C6B20DB9062052
:1023500000E0082007461DB9064806FB070002E01A
:10236000054806FB0700804639464046FFF78EFDCC
:10237000BDE8F081EE2E0008E62B000810B500291C
:102380000AD00878002807D005487844FEF7FAFFFD
:10239000002801D0002010BD0248784410BD000084
:1023A000CE0E0000C60E000010B500290AD0087835
:1023B000002807D005487844FEF7E4FF002801D044
:1023C000002010BD0248784410BD0000BE0E000081
:1023D000B60E00004FF04070E1EE100A7047FEF7B5
:1023E000DEBBFEF713BD000000000000000000008F
:1023F00000000000000000000000000000000000DD
:1024000000000000000000000000000000000000CC
:1024100000000000000000000000000000000000BC
:1024200000000000000000000000000000000000AC
:10243000000000000000000000000000000000009C
:10244000000000000000000000000000000000008C
:10245000000000000000000000000000000000007C
:10246000000000000000000000000000000000006C
:1024700000008080808080404040404040202020FC
:10248000202020202020202020202020202020204C
:10249000202020202020202020202020202020203C
:1024A0002020202020202020A0A0A060E0E060606C
:1024B00060200020202020202020202000004040FC
:1024C000400080000000000000000000000000004C
:1024D00000000000000000000000000000000000FC
:1024E0000000000000000000000000FE00010101EB
:1024F0000101FDFDFDFD010101010101FDFDFDFDEC
:1025000001010101FDFDFDFDF9F1E1C181C1E1F92B
:10251000FDFDFDFDFD01010101FDFDFDFDDDDDDD3B
:102520001D1101FF0101010100FE01A808080808B2
:102530000808080808080808080810E0182484009B
:10254000028205514470A0C0606020008080C0C03D
:10255000C0400000000000800000000000000000FB
:1025600000000000000000000000003F606060E02C
:1025700060607F7F7F7F7C7C7C7C60607F7F7F7FF3
:10258000606060607F7F7F7F61676F7F7F6F676361
:10259000617F7F7F7F606060607F7F7F7F7D7D7DEB
:1025A0007C74607F404040A060FCF6010E0606028D
:1025B000020202020202020202020242723C2010E5
:1025C00010000402030200000004040404141010AC
:1025D00010101009092970204305F07EAE803800E4
:1025E00000000000000000000000000000000001EA
:1025F00001010101010101017F7F7F7FFFFFF7FBE7
:102600007BBF5F5D7DBDBD3F5D59B173F3E5CF1B02
:102610003F77FFCFBFFFFFFFFFFFFFFFFF7F7F7F02
:102620007F7F7F7F7FFFFFFF7F7F7D78787878785F
:10263000F8787878787878F8F8E08700000000007B
:1026400000000080F0F878BCDC5CFC1C1C3C5C5C8E
:102650003C78F8F860C08FA8D88831444802A06060
:1026600000000000000000000080C0F8F8F8F8FC4E
:10267000FEFEFEFEFEFEFEFEFEFEFEFFFFFFFFFF75
:10268000F6EFD0F6AEADA980D1D0E0F7F9FFFFFCB0
:10269000DCF07FFFDFFFFFFFFFFFFFFEFEFFFFFF1E
:1026A000FFFFFFFFFEFFFFFFFFFFFFFFFEFEFEFE3F
:1026B000FEFEFEFEFEFEFEFEFEFEFFFFFFFFFFFF34
:1026C000FEFFBEFFFFFDF0EFDDDFFEA888AAC4D04D
:1026D000E4E6F87F7E9CD8E0F0F0F2F2F0B1200062
:1026E00000000000000000000001010101030303DD
:1026F00007070707070F0F0F070F0F0F07070F0E2B
:102700000F0D0F2F2B2B2B2B2B2F6FEFFFFDFDFF13
:10271000FEFFFFFFFFFFBFBFEFEFEFBFFFBFFFFFFA
:10272000FFFFFFFFFFFFFFFFFFFFFFFFFFFFFFFFB9
:10273000FFFFFFFFFFFFFFFFFFFF7F7F7F7FFFFFA9
:10274000BFBFBFBFFFFEFFFDFFFFFFFBFFFFFF7F20
:102750007D3F1F1F1F1F1F1F3F0F0F07070303038F
:102760000000000000000000000000000000000069
:102770000000000000000000000000000000000059
:102780000000000000000000000000000000000049
:102790000000000101000101000000000000000035
:1027A000000001010101010101010303030B0B0BF7
:1027B0000B07030E06060602121313031715151155
:1027C0000113130306060E0F0F070F0F0F0B020066
:1027D00000000000000000000000000000000000F9
:1027E00000000000000000000000000000000000E9
:1027F00000000000000000000000000000000000D9
:1028000000000000008080C0C0E0E0F0F0F8F8F8C0
:10281000FCFCFCFCFCFEFEFEFEFEFEFEFEFEFEFEE2
:10282000FEFEFEFEFEFEFEFEFEFEFEFEFEFEFEFEC8
:10283000FEFEFEFEFEFEFEFCFCFCFCFCFCFCFCFCCA
:10284000F8F8F8F8F8F0F0F0F0E0E0E0E0C0C0C030
:1028500080808000000000000000000000000000F8
:102860000000000000000000000000000000000068
:1028700000000000000080C0E0F0F0F8F8FCFEFE70
:10288000FE1F0F070703030303030307071F1F1F91
:102890001F0F0F0F0F0707070303030303030303B0
:1028A00003030303030303030303030303030303F8
:1028B000030303030303070707070707070F0F0FA8
:1028C0000F1F1F1F1F3F3F3F7F7FFFFFFFFFFFFFC8
:1028D000FFFFFFFFFFFEFEFCFCF8F8F0E0E0C0C0E9
:1028E0008000000000000000000000000000000068
:1028F0000080E0F8FEFFFFFFFFFFFFFFFFFF7F0705
:1029000002000000000000000000000000000000C5
:10291000000000000000C0E0E0E0E0E0E0E0E0C037
:10292000C080000000000000000000000000000067
:10293000000000E0E0F0F0F0F0F0F0E0E0E0C000D7
:102940000000000000000000000000000001030380
:1029500007070F7FFFFFFFFFFFFFFFFFFFFFFFFFE7
:10296000FFFFFCF00000000000000000000000007D
:1029700078FFFFFFFFFFFFFFFFFFFFFFFFFF80006C
:102980000000000000000000000000000000000047
:10299000000000000000010303030303030303031B
:1029A0000100000000000000000000000000000026
:1029B0000000000001010303030303030101000001
:1029C0000080808000000000000000000000000087
:1029D00000000003FFFFFFFFFFFFFFFFFFFFFFFF00
:1029E000FFFFFFFF000000000000000000000000EB
:1029F00000033F7FFFFFFFFFFFFFFFFFFFFFFFFC25
:102A0000F0E0C0800000000000000000000000189E
:102A10003830706060E0C0C0C0C0C0C0C0C0C0C0BE
:102A2000C0C0C0C0C0C0C0C0C0C0C0E0E0E0E0E006
:102A3000E0E0E0E0E0E0E0E0F0F8F8FC7E7E3F3F40
:102A40001F1F0F0F0707000000000000000000001C
:102A50000000C0E0FFFFFFFFFFFFFFFFFFFFFFFFE2
:102A6000FFFFFF3F0000000000000000000000002A
:102A7000000000000103070F0F1F3F7F7FFFFFFFD4
:102A8000FFFFFFFFFFFEFCFCF8F8F8F0F0E0E0C00D
:102A9000C0808080000000000000000101010101F1
:102AA0000101010101010101010101010101010116
:102AB0000101010101000000000000000000000011
:102AC0000000000000000000808080C0C0E0F8FC32
:102AD000FEFFFFFFFFFFFFFFFFFFFFFFFF7F3F1F27
:102AE00007010000000000000000000000000000DE
:102AF00000000000000000000000000000000001D5
:102B000001030307070F0F1F1F1F3F3F7F7F7FFF3B
:102B1000FFFFFFFFFFFFFFFFFEFEFEFEFCFCFCFCD5
:102B2000FCFCFCFCFCFCFCFCFCFCFCFCFCFCFCFCE5
:102B3000FCFCFCFCFCFCFCFCFCFCFCFCFCFCFCFED3
:102B4000FEFEFEFEFEFFFFFFFFFFFFFFFFFF7F7F9A
:102B50007F3F3F3F1F1F0F0F0F07030100000000C3
:102B60000000000000000000000000000000000065
:102B70000000000000000000000000000000000055
:102B80000000000000000000000000000000000045
:102B90000000000001010101030303030303030319
:102BA00007070707070707070707070707070707B5
:102BB00007070707070707070707070707070303AD
:102BC00003030303030101010101010000000000F0
:102BD00000000000000000000000000000000000F5
:102BE00000000000000000000000000000000000E5
:102BF000005F5F0000000007070000070700247E59
:102C00007E247E7E240000242E6B6B3A1200006628
:102C100036180C666200307A4F5D37725000000043
:102C20000007070000000000003E7F6341000041F4
:102C3000637F3E000000082A3E1C1C3E2A08000854
:102C4000083E3E0808000080E06000000000000828
:102C5000080808080800000000606000000000602C
:102C600030180C060300003E7F49457F3E000040BF
:102C7000427F7F40400000426371594F460000216F
:102C800061454F7B310000181C167F7F1000002724
:102C90006745457D3900003E7F4949793000000194
:102CA00071790D07030000367F49497F3600000621
:102CB0004F49693F1E00000000363600000000004A
:102CC0004076360000000000081C366341000024F6
:102CD000242424242400004163361C080000000240
:102CE0000351590F0600003E7F415D575E00007C96
:102CF0007E13137E7C00007F7F49497F3600003EB3
:102D00007F4141632200007F7F41633E1C00007FC2
:102D10007F4949494100007F7F0909090100003EC0
:102D20007F4149797900007F7F08087F7F0000009C
:102D3000417F7F41000000206040407F3F00007FD6
:102D40007F1C36634100007F7F40404040007F7F12
:102D5000060C067F7F00007F7F0E1C7F7F00003EF9
:102D60007F41417F3E00007F7F09090F0600003E42
:102D70007F51217F5E00007F7F09197F660000265A
:102D80006F49497B32000001017F7F010100003F54
:102D90007F40407F7F00001F3F60603F1F007F7FBC
:102DA0003018307F7F000063771C1C7763000007BA
:102DB0000F78780F0700006171594D4743000000FC
:102DC000007F7F4141000003060C18306000004185
:102DD000417F7F000000080C0603060C08004040FD
:102DE00040404040400002060C0800000000002067
:102DF0007454547C7800007F7F44447C3800003851
:102E00007C444444000000387C44447F7F00003808
:102E10007C54545C180000047E7F05050000009877
:102E2000BCA4A4FC7C00007F7F04047C780000002C
:102E3000447D7D400000008080FD7D000000007F1B
:102E40007F10386C44000000417F7F4000007C7C94
:102E50000C180C7C7800007C7C04047C7800003822
:102E60007C44447C380000FCFC44447C380000383E
:102E70007C4444FCFC00007C7C04040C08000048FA
:102E80005C54547424000004043E7E444400003C1E
:102E90007C40407C7C00001C3C60603C1C001C7C36
:102EA0006030607C1C0000446C38386C4400009C2E
:102EB000BCA0A0FC7C00004464745C4C4400000096
:102EC000083E77414100000000FFFF000000004184
:102ED00041773E0800000C06060C18180C00006034
:102EE000785E4658600000060F09090F06000000D2
:102EF0000000000000005F00000000070007000065
:102F0000147F147F1400242A7F2A120023130864DC
:102F10006200364955225000000503000000001CE5
:102F2000224100000041221C0000082A1C2A08003F
:102F300008083E0808000050300000000808080893
:102F400008000030300000002010080402003E514C
:102F500049453E0000427F40000042615149460021
:102F60002141454B31001814127F1000274545457B
:102F700039003C4A494930000171090503003649CE
:102F800049493600064949291E000036360000002E
:102F900000563600000000081422410014141414D6
:102FA00014004122140800000201510906003249B0
:102FB00079413E007E1111117E007F49494936005A
:102FC0003E41414122007F4141221C007F49494945
:102FD00041007F09090101003E41415132007F0853
:102FE00008087F0000417F4100002040413F010070
:102FF0007F08142241007F40404040007F020402CD
:103000007F007F0408107F003E4141413E007F0960
:10301000090906003E4151215E007F091929460039
:1030200046494949310001017F0101003F404040CC
:103030003F001F2040201F007F2018207F006314C6
:1030400008146300030478040300615149454300F8
:1030500000007F41410002040810200041417F0030
:103060000000040201020400404040404000000112
:10307000020400002054545478007F48444438002F
:10308000384444442000384444487F003854545461
:103090001800087E09010200081454543C007F08FF
:1030A0000404780000447D4000002040443D0000BE
:1030B000007F1028440000417F4000007C04180479
:1030C00078007C08040478003844444438007C14B8
:1030D00014140800081414187C007C080404080068
:1030E000485454542000043F444020003C404020B9
:1030F0007C001C2040201C003C4030403C00442808
:10310000102844000C5050503C004464544C44007F
:1031100000083641000000007F0000000041360832
:103120000000020102040200000000000000060985
:10313000090906000908070605040302000000004B
:1031400000000000303132333435363738394142EF
:1031500043444546403058003031323334353637F9
:1031600038396162636465664030780004000008A5
:1031700000000000000000020001000010303132A9
:103180003334353637383961626364656678700088
:10319000303132333435363738394142434445468D
:1031A0005850000002400000000000A00000000095
:1031B00005400000000000C8000000000C400000B6
:1031C0000000409C00000000194000000020BCBE30
:1031D0000000000034400000BFC91B8E0000000446
:1031E000B5400000504BCFD06607E2CF0100000091
:1031F0006C4100003E8251AADFEEA73401000000BE
:10320000D9420000DCB5A0E23A301F97FFFFFFFF74
:10321000B4450000FD25A0C8E9A3C14FFFFFFFFF93
:10322000FF3F00000000008000000000FF3F0000A2
:10323000000000800000000084330008000000202F
:103240000C000000D0010008903300080C000020A2
:103250008C060000EC0100081C0000004300000088
:10326000F8FFFFFF0C0000000E0000000F00000040
:103270002E0000001001000043000000F8FFFFFFD7
:103280000040404040404040404041414141414079
:10329000404040404040404040404040404040402E
:1032A00040050202020202020202020202020202BD
:1032B00002202020202020202020200202020202C2
:1032C000020290909090909010101010101010101A
:1032D0001010101010101010101010100202020226
:1032E000020288888888888808080808080808086A
:1032F0000808080808080808080808080202020266
:10330000400000000000000000000000000000007D
:1033100000000000000000000000000000000000AD
:10332000000000000000000000000000000000009D
:10333000000000000000000000000000000000008D
:10334000000000000000000000000000000000007D
:10335000000000000000000000000000000000006D
:10336000000000000000000000000000000000005D
:10337000000000000000000000000000000000004D
:1033800000000000B8B9BABBBCBDBEBF0000000061
:040000050800019559
:00000001FF
