:020000040800F2
:1000000088060020450200084D0200084F02000843
:1000100051020008530200085502000800000000C9
:10002000000000000000000000000000570200086F
:1000300059020008000000005B0200085D02000891
:100040005F0200085F0200085F0200085F0200080C
:100050005F0200085F0200085F0200085F020008FC
:100060005F0200085F0200085F0200085F020008EC
:100070005F0200085F0200085F0200085F020008DC
:100080005F0200085F0200085F0200080000000035
:100090000000000000000000000000005F020008F7
:1000A0005F0200085F0200085F0200085F020008AC
:1000B0005F0200085F0200085F0200085F0200089C
:1000C0005F0200085F0200085F0200085F0200088C
:1000D0005F0200085F0200085F02000800000000E5
:1000E0005F0200085F0200085F02000800000000D5
:1000F0000000000000000000000000005F02000897
:10010000000000005F0200085F0200085F020008B4
:1001100000000000000000000000000000000000DF
:100120005F0200085F0200085F0200085F0200082B
:100130005F02000800000000000000000000000056
:100140000000000000000000000000005F02000846
:100150005F0200085F0200085F0200085F020008FB
:100160005F0200085F0200080000000000000000BD
:10017000000000000000000000000000000000007F
:10018000000000005F020008000000000000000006
:100190005F02000800F002F800F045F80AA090E8BD
:1001A000000C82448344AAF10107DA4501D100F032
:1001B0003AF8AFF2090EBAE80F0013F0010F18BFBA
:1001C000FB1A43F001031847440A0000640A0000C8
:1001D000103A24BF78C878C1FAD8520724BF30C873
:1001E00030C144BF04680C60704700000023002445
:1001F00000250026103A28BF78C1FBD8520728BF37
:1002000030C148BF0B6070471FB500F08FFC00F095
:1002100025F904000020002100F072FC401C606001
:100220001FBD10B510BD00F0F4F81146FFF7ECFF4C
:1002300000F0A8FB00F024F903B4FFF7F2FF03BCC1
:1002400000F068F90948804709480047FEE7FEE7E3
:10025000FEE7FEE7FEE7FEE7FEE7FEE7FEE7FEE776
:1002600004480549054A064B70470000250500086B
:1002700095010008880000208806002088020020E0
:100280008802002070B5064600F02CF80468054688
:1002900030460A22002100F029F82C6070BD10B50C
:1002A000431C02E010F8011B71B18107FAD14FF035
:1002B000013202C88C1A8C4314EAC211F9D0C01A58
:1002C0000A0603D0C01E10BDC01A10BD0A0401D01A
:1002D000801E10BD0902FCD0401E10BD7047704743
:1002E0007047000000487047240000202DE9F047C7
:1002F00091460F4680460446002614F8015B2DB156
:1003000000F030F80068405DC007F6D12B2D02D018
:100310002D2D18D0641E4A463946204600F02AF892
:1003200027B13968A14201D1C7F800804FF002041B
:1003300071050BD54042002803DDFFF7D3FF0460B1
:10034000A007BDE8F08746F48066E4E70028F8DA05
:10035000FFF7C8FF04606FF00040F2E70048704705
:100360002400002010B500F079F8001D10BD00BF7A
:10037000910700002DE9F05F824615468B46002765
:100380000AF10104B9460078302801D09DB113E08C
:1003900014F8010B0127782803D0582801D045B163
:1003A0000AE00DB1102D07D1002714F8010B10251C
:1003B00002E0082500E00A250026B0460EE005FB15
:1003C000080005FB06F101271FFA80F801EB104633
:1003D000B6F5803F00D3B94614F8010B294600F06A
:1003E00041F80028EBDABBF1000F05D00FB1641E15
:1003F00000E05446CBF80040B9F1000F06D0FFF7FB
:1004000071FF02210160C81EBDE8F09F48EA064066
:10041000FAE77546FFF7A2FFAE4605006946534668
:1004200020F00700854618B020B5FFF719FFBDE89A
:1004300020404FF000064FF000074FF000084FF04B
:10044000000B21F00701AC46ACE8C009ACE8C009DC
:10045000ACE8C009ACE8C0098D4670470048704759
:10046000440000203A2800D2303820F02002412AEF
:1004700001D3A2F13700884201D34FF0FF3070471B
:1004800010B50446AFF300802046BDE81040FFF7EA
:10049000D3BE00004FF0013C50F8042B51F8043B50
:1004A0009A4221D1A2EB0C03934313EACC1317D148
:1004B00050F8042B51F8043B9A4215D1A2EB0C03DF
:1004C000934313EACC130BD150F8042B51F8043B9F
:1004D0009A4209D1A2EB0C03934313EACC13DBD06D
:1004E0004FF00000704700BFD01A01BAB1FA81F195
:1004F00001F0180122FA01F0CB40C1F12001DBB27A
:10050000C0B2C01A2CFA01F3D11A914311EAC311F7
:10051000E6D1704701491820ABBEFEE72600020075
:10052000704700000348006840F47000014908600B
:100530007047000088ED00E010B5002104E02024A1
:100540000A464B1CD9B28454425C002AF7D110BD34
:100550000F48006840F001000D49086000BF0C48DA
:10056000006800F002000028F9D00948083000684F
:1005700020F003000649083108600846006820F0B2
:10058000605008600846006820F0404008607047EE
:100590000038024007E0002100E0491C40F67B42A1
:1005A0009142FADB401E0028F5DC70472DE9F0414E
:1005B00003461846D91703EB1171C1F30714D91775
:1005C00003EB11710911A3EB0111CDB2204600F02C
:1005D00049F806460120A84087B23069384008B182
:1005E000012000E0002080464046BDE8F0812DE972
:1005F000F04103460C461846D91703EB1171C1F3BD
:100600000715D91703EB11710911A3EB0111CEB234
:10061000284600F027F80746012000FA06F80CB13A
:10062000404601E04FEA0840B861BDE8F0810000B3
:10063000014600220846202803DB7F2801DC012335
:1006400000E000232BB1A1F12000044B33F810008F
:1006500001E003480088024610467047360B000848
:10066000F60B00080146082911D2DFE801F0040664
:10067000080A0C10100E074809E0074807E0074871
:1006800005E0074803E0074801E0074800BF00BF56
:1006900070470000000002400004024000080240D1
:1006A000000C024000100240001C024010B502463F
:1006B0000B460021481E00BF06E0545C9C4201D15D
:1006C000084604E04C1C61B2545C002CF5D100BF1C
:1006D00010BD10B5044600F0A3F8E02000F0C2F809
:1006E000812141EA4401C8B200F0BCF800F0A4F84E
:1006F00010BD10B5044600F063F80520FFF74AFF6F
:1007000000F007F8204600F010F80020FFF7E1FFA6
:1007100010BD00B500F084F8E02000F0A3F821201F
:1007200000F0A0F800F088F800BD30B504460F2CAA
:1007300001DC204600E00120054600F071F8E020D1
:1007400000F090F845F0E00000F08CF800F074F84C
:1007500030BD10B5044600F063F8E02000F082F8E8
:10076000002000F07FF8204600F003F800F064F865
:1007700010BD10B5044603E014F8010B00F0B2F907
:1007800020780028F8D110BD10B50446012C01D006
:10079000012000E00020014601231A46184600F01F
:1007A0004BF901210020FFF722FF00210846FFF747
:1007B0001EFF01231A460021184600F03DF910BD26
:1007C00000B500231A460121184600F035F901232F
:1007D0001A460021184600F02FF901210020FFF7EA
:1007E00006FF00BD70B506460025002411E001217A
:1007F0000020FFF7FCFE0120FFF7D8FEC4F107013F
:1008000088402844C5B200210846FFF7F0FE601C6E
:10081000C4B2082CEBDB3046FFF7B6FF284670BDAC
:1008200000B501231A461946184600F005F90021C3
:100830000846FFF7DCFE00BD00B500210846FFF7C3
:10084000D6FE01231A461946184600F0F5F8012194
:100850000020FFF7CCFE01231A460021184600F0C5
:10086000EBF800BD30B50546002412E005FA04F0AF
:10087000012222EAD0111346104600F0DDF80121D2
:100880000020FFF7B4FE00210846FFF7B0FE601C11
:10089000C4B2082CEADB0020FFF776FF012030BD50
:1008A0002DE9F04706460C46174698464FF00009DA
:1008B00020213046FFF7FAFE0546BC4203D0681CF3
:1008C00070B174550CE0BC420AD1681C18B93046AE
:1008D000FFF7E5FC45B2002D02DD2021681E3154F2
:1008E0003046FFF7CFFC8146444502D13046FFF742
:1008F00023FE4846BDE8F08700B5F021402000F017
:1009000071F800BDF0B54FF0FF370025002431E04D
:100910000120A040C6B23146402000F07EF800BF62
:1009200000BF402000F068F8054605F0100020B137
:10093000134810F8240047B21EE005F0200028B14B
:100940000F4800EB8400407847B215E005F0400006
:1009500028B10B4800EB8400807847B20CE005F02A
:10096000800028B1064800EB8400C07847B203E05D
:10097000601CC4B2042CCBDB00BF3846F0BD0000C5
:1009800000000020FFF7E4FD0F20FFF7B2FEFFF7A5
:10099000B3FF1EE0FFF7B6FF0E490870084690F956
:1009A0000000401C90B10C480A4692F90020815C7E
:1009B000452343220948FFF773FF094908600748A8
:1009C000FFF7C7FE4FF4FA70FFF7E4FD0A20FFF7C8
:1009D000E1FDDFE720000020F80B000810000020F8
:1009E0001C00002030B504460D46FFF7E9FE2946FD
:1009F000204600F012F830BD30B504460025FFF760
:100A00000FFF44F00100FFF72DFF0120FFF7EAFE82
:100A10000546FFF711FF284630BD30B504460D46A8
:100A2000FFF7FEFE2046FFF71DFF2846FFF71AFFDF
:100A3000FFF702FF30BD00002DE9F04304460F46EA
:100A4000164698462046E11704EB1171C1F30719C9
:100A5000E11704EB11710911A4EB0111CDB2484665
:100A6000FFF700FE03461E480068012101FA09F164
:100A700008431B49086018686A00032191408843B5
:100A800018601868690007FA01F108431860012E20
:100A900005D158680121A9400843586005E026B9EE
:100AA00058680121A94088435860D8686A0003212A
:100AB00091408843D860D868690008FA01F108437A
:100AC000D86098686A0003219140884398609868CC
:100AD0006A000221914008439860BDE8F08300005D
:100AE0003038024030B505462846FFF7A1FD0446E0
:100AF000E0B2FFF7B7FE2012FFF7B4FE30BD0000F2
:100B000010B500290AD00878002807D00548784495
:100B1000FFF7C0FC002801D0002010BD0248784437
:100B200010BD00001E010000160100004FF04070D3
:100B3000E1EE100A704700000C0004023CAABBAAB8
:100B400099EE719300020014004100FF00AA0040DA
:100B5000008860A00044FF440C0477883F088C881C
:100B6000B390FB880F00FF88BF88002200420094EA
:100B7000308800490728F70ACF883F2AF3003F2230
:100B8000F380C380FB08CC8833227C00C094F00043
:100B9000CC05CC11FF00C788FF10C798BB88032283
:100BA000FC00C044CC500055BC88334412220011D4
:100BB000212200503000000170A0E0A060801C28BD
:100BC00060C002AAA1A2C0A0002060220036C0001E
:100BD00048A840A060A0C18281A24080A1A0E0807E
:100BE00060204040485000551C0A20C012A200223C
:100BF000212A00CC0000060A43303D2B3132332D30
:100C0000343536783738392F000000003C0D0008A5
:100C10000000002024000000D0010008600D000842
:100C20002400002064060000EC0100081001000010
:100C300043000000F8FFFFFF0040404040404040BC
:100C4000404041414141414040404040404040409F
:100C50004040404040404040400502020202020243
:100C60000202020202020202022020202020202092
:100C700020202002020202020202909090909090A6
:100C80001010101010101010101010101010101064
:100C900010101010020202020202888888888888D8
:100CA00008080808080808080808080808080808C4
:100CB00008080808020202024000000000000000CC
:100CC0000000000000000000000000000000000024
:100CD0000000000000000000000000000000000014
:100CE0000000000000000000000000000000000004
:100CF00000000000000000000000000000000000F4
:100D000000000000000000000000000000000000E3
:100D100000000000000000000000000000000000D3
:100D200000000000000000000000000000000000C3
:100D300000000000000000000000000000010203AD
:100D40000405060708090A0B0C0D0E0F20202020B1
:100D5000202020200000000000000000FF00000014
:040000050800019559
:00000001FF
